{"contracts/APIrequest.sol":{"APIrequest":{"abi":[{"inputs":[],"stateMutability":"nonpayable","type":"constructor"},{"inputs":[],"name":"EmptyArgs","type":"error"},{"inputs":[],"name":"EmptySecrets","type":"error"},{"inputs":[],"name":"EmptySource","type":"error"},{"inputs":[],"name":"NoInlineSecrets","type":"error"},{"inputs":[],"name":"OnlyRouterCanFulfill","type":"error"},{"inputs":[{"internalType":"bytes32","name":"requestId","type":"bytes32"}],"name":"UnexpectedRequestID","type":"error"},{"anonymous":false,"inputs":[{"indexed":true,"internalType":"address","name":"from","type":"address"},{"indexed":true,"internalType":"address","name":"to","type":"address"}],"name":"OwnershipTransferRequested","type":"event"},{"anonymous":false,"inputs":[{"indexed":true,"internalType":"address","name":"from","type":"address"},{"indexed":true,"internalType":"address","name":"to","type":"address"}],"name":"OwnershipTransferred","type":"event"},{"anonymous":false,"inputs":[{"indexed":true,"internalType":"bytes32","name":"id","type":"bytes32"}],"name":"RequestFulfilled","type":"event"},{"anonymous":false,"inputs":[{"indexed":true,"internalType":"bytes32","name":"id","type":"bytes32"}],"name":"RequestSent","type":"event"},{"anonymous":false,"inputs":[{"indexed":true,"internalType":"bytes32","name":"requestId","type":"bytes32"},{"indexed":false,"internalType":"bytes","name":"response","type":"bytes"},{"indexed":false,"internalType":"bytes","name":"err","type":"bytes"}],"name":"Response","type":"event"},{"inputs":[],"name":"acceptOwnership","outputs":[],"stateMutability":"nonpayable","type":"function"},{"inputs":[{"internalType":"bytes32","name":"requestId","type":"bytes32"},{"internalType":"bytes","name":"response","type":"bytes"},{"internalType":"bytes","name":"err","type":"bytes"}],"name":"handleOracleFulfillment","outputs":[],"stateMutability":"nonpayable","type":"function"},{"inputs":[],"name":"owner","outputs":[{"internalType":"address","name":"","type":"address"}],"stateMutability":"view","type":"function"},{"inputs":[],"name":"result","outputs":[{"internalType":"string","name":"","type":"string"}],"stateMutability":"view","type":"function"},{"inputs":[],"name":"s_lastError","outputs":[{"internalType":"bytes","name":"","type":"bytes"}],"stateMutability":"view","type":"function"},{"inputs":[],"name":"s_lastRequestId","outputs":[{"internalType":"bytes32","name":"","type":"bytes32"}],"stateMutability":"view","type":"function"},{"inputs":[],"name":"s_lastResponse","outputs":[{"internalType":"bytes","name":"","type":"bytes"}],"stateMutability":"view","type":"function"},{"inputs":[{"internalType":"string[]","name":"args","type":"string[]"},{"internalType":"bytes[]","name":"bytesArgs","type":"bytes[]"},{"internalType":"bytes","name":"encryptedSecretsUrls","type":"bytes"},{"internalType":"uint8","name":"donHostedSecretsSlotID","type":"uint8"},{"internalType":"uint64","name":"donHostedSecretsVersion","type":"uint64"}],"name":"sendRequest","outputs":[{"internalType":"bytes32","name":"requestId","type":"bytes32"}],"stateMutability":"nonpayable","type":"function"},{"inputs":[{"internalType":"bytes","name":"request","type":"bytes"},{"internalType":"uint64","name":"subscriptionId","type":"uint64"},{"internalType":"uint32","name":"gasLimit","type":"uint32"},{"internalType":"bytes32","name":"donID","type":"bytes32"}],"name":"sendRequestCBOR","outputs":[{"internalType":"bytes32","name":"requestId","type":"bytes32"}],"stateMutability":"nonpayable","type":"function"},{"inputs":[{"internalType":"address","name":"to","type":"address"}],"name":"transferOwnership","outputs":[],"stateMutability":"nonpayable","type":"function"}],"evm":{"bytecode":{"linkReferences":{},"object":"60a080604052346100f0576005546001600160a01b0381166080529033156100ae57600080546001600160a01b031916331790556001600160e01b03198216750a57b83e47c2bc239b3bf370bc41e1459a34b41238d0176005557f66756e2d657468657265756d2d6d61696e6e65742d31000000000000000000006006556007805463ffffffff1916620493e017905560405161222890816100f6823960805181818161010c0152610fd00152f35b62461bcd60e51b815260206004820152601860248201527f43616e6e6f7420736574206f776e657220746f207a65726f00000000000000006044820152606490fd5b600080fdfe608060405260048036101561001357600080fd5b600090813560e01c9182630ca76175146100bd57505080633944ea3a146100b85780634b0795a8146100b357806365372147146100ae57806379ba5097146100a95780638da5cb5b146100a45780639681096f1461009f578063b1e217491461009a578063e1da6c89146100955763f2fde38b1461009057600080fd5b610a72565b610965565b6108a1565b61082c565b6107ed565b610731565b61064c565b6104f0565b61041c565b346102b85760603660031901126102b8578135602435926001600160401b03938481116102b4576100f19036908301610373565b936044358181116102b0576101099036908401610373565b917f00000000000000000000000000000000000000000000000000000000000000006001600160a01b031633036102a157836002540361028957508451908111610284576101618161015c600354610391565b610c5e565b602080601f8311600114610204575090806101989286976101a09697926101f9575b50508160011b916000199060031b1c19161790565b600355610d1e565b807f7873807bf6ddc50401cd3d29bbe0decee23fd4d68d273f4b5eb83cded4d2f172604051806101cf81610e9d565b0390a27f85e1543bf2f84fe80c6badbce3648c8539ad1df4d2b3d822938ca0538be727e68280a280f35b015190508780610183565b90601f1983169661022560036000526000805160206121b383398151915290565b9287905b89821061026c575050908392916001946101a097989910610253575b505050811b01600355610d1e565b015160001960f88460031b161c19169055868080610245565b80600185968294968601518155019501930190610229565b6102bb565b60405163d068bf5b60e01b8152908101849052602490fd5b60405163c6829f8360e01b8152fd5b8480fd5b8380fd5b80fd5b634e487b7160e01b600052604160045260246000fd5b60e081019081106001600160401b0382111761028457604052565b604081019081106001600160401b0382111761028457604052565b90601f801991011681019081106001600160401b0382111761028457604052565b9291926001600160401b0382116102845760405191610351601f8201601f191660200184610307565b82948184528183011161036e578281602093846000960137010152565b600080fd5b9080601f8301121561036e5781602061038e93359101610328565b90565b90600182811c921680156103c1575b60208310146103ab57565b634e487b7160e01b600052602260045260246000fd5b91607f16916103a0565b919082519283825260005b8481106103f7575050826000602080949584010152601f8019910116010190565b6020818301810151848301820152016103d6565b90602061038e9281815201906103cb565b3461036e576000806003193601126102b85760405190806003549061044082610391565b808552916020916001918281169081156104c3575060011461047d575b6104798661046d81880382610307565b6040519182918261040b565b0390f35b9350600384526000805160206121b38339815191525b8385106104b05750505050810160200161046d826104793861045d565b8054868601840152938201938101610493565b90508695506104799693506020925061046d94915060ff191682840152151560051b82010192933861045d565b3461036e576000806003193601126102b85760405190806004549061051482610391565b808552916020916001918281169081156104c35750600114610540576104798661046d81880382610307565b9350600484526000805160206121d38339815191525b8385106105735750505050810160200161046d826104793861045d565b8054868601840152938201938101610556565b604051906000826009549161059a83610391565b8083529260209060019081811690811561062857506001146105c7575b50506105c592500383610307565b565b91509260096000527f6e1540171b6c0c960b71a7020d9f60077f6af931a8bbf590da0223dacf75c7af936000925b82841061061057506105c594505050810160200138806105b7565b855488850183015294850194879450928101926105f5565b915050602092506105c594915060ff191682840152151560051b82010138806105b7565b3461036e576000806003193601126102b8576040519080826008549161067183610391565b928383526020946001918660018216918260001461070f5750506001146106b5575b50506106a192500383610307565b6104796040519282849384528301906103cb565b90859250600882527ff3f7a9fe364faab93b216da50a3214154f22a0a2b415b23a84c8169e8b636ee35b8583106106f75750506106a193508201013880610693565b805483890185015287945086939092019181016106df565b92509350506106a194915060ff191682840152151560051b8201013880610693565b3461036e576000806003193601126102b8576001546001600160a01b0390811633036107af5781546001600160a01b0316600080546001600160a01b0319163317905590600180546001600160a01b03191690553391167f8be0079c531659141344cd1fd0a4f28419497f9722a3daafe3b4186f6b6457e08380a380f35b60405162461bcd60e51b815260206004820152601660248201527526bab9ba10313290383937b837b9b2b21037bbb732b960511b6044820152606490fd5b3461036e57600036600319011261036e576000546040516001600160a01b039091168152602090f35b608435906001600160401b038216820361036e57565b3461036e57608036600319011261036e576001600160401b0360043581811161036e5761085d903690600401610373565b90602435908116810361036e576044359163ffffffff8316830361036e576104799261088c9260643592610f78565b80600255604051918291829190602083019252565b3461036e57600036600319011261036e576020600254604051908152f35b6001600160401b0381116102845760051b60200190565b81601f8201121561036e578035916020916108f0846108bf565b936108fe6040519586610307565b808552838086019160051b8301019280841161036e57848301915b8483106109295750505050505090565b82356001600160401b03811161036e57869161094a84848094890101610373565b815201920191610919565b6064359060ff8216820361036e57565b3461036e5760a036600319011261036e576004356001600160401b0380821161036e573660238301121561036e5781600401356024926109a4826108bf565b936109b26040519586610307565b8285526020926024602087019160051b8401019236841161036e5760248101915b848310610a3b57878760243581811161036e576109f49036906004016108d6565b9160443591821161036e5761047992610a14610a2b933690600401610373565b610a1c610955565b91610a25610816565b93610b67565b6040519081529081906020820190565b823587811161036e5782013660438201121561036e578691610a67839236906044898201359101610328565b8152019201916109d3565b3461036e57602036600319011261036e576004356001600160a01b038181169182900361036e5760005416803303610b2957338214610ae457600180546001600160a01b031916831790557fed8889f560326eb138920d842192f0eb3dd22b4f139c87a2c57538e05bae1278600080a3005b60405162461bcd60e51b815260206004820152601760248201527f43616e6e6f74207472616e7366657220746f2073656c660000000000000000006044820152606490fd5b60405162461bcd60e51b815260206004820152601660248201527527b7363c9031b0b63630b1363290313c9037bbb732b960511b6044820152606490fd5b90610c0f9491610c0a94610be89460405194610b82866102d1565b60008652600060208701526000604087015260608087015260606080870152606060a0870152606060c0870152610bc0610bba610586565b87611463565b815115610c355750610bd391508461110e565b8051610c25575b508051610c15575b50611295565b60055460a01c6001600160401b031660075463ffffffff169060065492610f78565b600255565b60025490565b610c1f9082611153565b38610be2565b610c2f9083611134565b38610bda565b90506001600160401b038116610c4d575b5050610bd3565b610c57918561108c565b3880610c46565b601f8111610c6a575050565b60009060036000526000805160206121b3833981519152906020601f850160051c83019410610cb4575b601f0160051c01915b828110610ca957505050565b818155600101610c9d565b9092508290610c94565b601f8111610cca575050565b60009060046000526000805160206121d3833981519152906020601f850160051c83019410610d14575b601f0160051c01915b828110610d0957505050565b818155600101610cfd565b9092508290610cf4565b9081516001600160401b03811161028457610d4381610d3e600454610391565b610cbe565b602080601f8311600114610d8557508190610d759394600092610d7a5750508160011b916000199060031b1c19161790565b600455565b015190503880610183565b90601f19831694610da660046000526000805160206121d383398151915290565b926000905b878210610de3575050836001959610610dca575b505050811b01600455565b015160001960f88460031b161c19169055388080610dbf565b80600185968294968601518155019501930190610dab565b60045460009291610e0b82610391565b80825291602090600190818116908115610e785750600114610e2e575b50505050565b9293945060046000526000805160206121d3833981519152926000935b858510610e65575050506020925001019038808080610e28565b8054858501840152938201938101610e4b565b92505050602093945060ff929192191683830152151560051b01019038808080610e28565b9060408252600060035492610eb184610391565b806040830152606094600190600181169081600014610f365750600114610ee8575b505061038e9293506020818303910152610dfb565b60036000908152959293506000805160206121b38339815191525b828710610f215750505050606061038e929382010190839238610ed3565b80548786018501526020909601958101610f03565b91505061038e949550606092935060ff191682840152151560051b82010190839238610ed3565b9081602091031261036e575190565b6040513d6000823e3d90fd5b92906020926001600160401b039263ffffffff610fb7604051978896879663230e93b160e11b885216600487015260a0602487015260a48601906103cb565b60016044860152921660648401526084830152038160007f00000000000000000000000000000000000000000000000000000000000000006001600160a01b03165af190811561106257600091611033575b50807f1131472297a800fee664d1d89cfa8f7676ff07189ecc53f80bbb5f4969099db8600080a290565b611055915060203d60201161105b575b61104d8183610307565b810190610f5d565b38611009565b503d611043565b610f6c565b634e487b7160e01b600052602160045260246000fd5b6003111561108757565b611067565b91906111006080926110d160ff6110a16114a6565b946110ca6040516110b1816102ec565b60068152651cdb1bdd125160d21b6020820152876114f6565b1684611888565b6110fa6040516110e0816102ec565b60078152663b32b939b4b7b760c91b6020820152846114f6565b82611888565b600260208401525151910152565b815115611122576001602082015260800152565b60405163e889636f60e01b8152600490fd5b8151156111415760a00152565b60405163fe936cb760e01b8152600490fd5b8151156111415760c00152565b6040519061116d826102ec565b600c82526b31b7b232a637b1b0ba34b7b760a11b6020830152565b60405190611195826102ec565b60088252676c616e677561676560c01b6020830152565b6001111561108757565b604051906111c3826102ec565b6006825265736f7572636560d01b6020830152565b604051906111e5826102ec565b60048252636172677360e01b6020830152565b805182101561120c5760209160051b010190565b634e487b7160e01b600052603260045260246000fd5b6040519061122f826102ec565b600f82526e39b2b1b932ba39a637b1b0ba34b7b760891b6020830152565b6040519061125a826102ec565b60078252667365637265747360c81b6020830152565b6040519061127d826102ec565b600982526862797465734172677360b81b6020830152565b61129d6114a6565b906112af6112a9611160565b836114f6565b6112cc81516112bd8161107d565b6112c68161107d565b836115b8565b6112d76112a9611188565b6112f160408201516112e8816111ac565b6112c6816111ac565b6112fc6112a96111b6565b61130a6060820151836114f6565b60a0810180515161140a575b50608081019081515161138a575b60c0915001805151611337575b50515190565b916113436112a9611270565b61134c8261168a565b60005b83518051821015611377579061137161136a826001946111f8565b51856117b2565b0161134f565b5050915061138481611725565b38611331565b6020810180516113998161107d565b6113a28161107d565b156113f85760c0926113db6113f3926113c26113bc611222565b886114f6565b516113cc8161107d565b6113d58161107d565b866115b8565b6113ec6113e661124d565b866114f6565b51846117b2565b611324565b60405163a80d31f760e01b8152600490fd5b9261141c6114166111d8565b846114f6565b6114258361168a565b60005b84518051821015611450579061144a611443826001946111f8565b51866114f6565b01611428565b5050925061145d82611725565b38611316565b81511561147a576000808252604082015260600152565b6040516322ce3edd60e01b8152600490fd5b60405190611499826102ec565b6000602083606081520152565b6040516114b2816102ec565b6114ba61148c565b80825260208201600081526114cd61148c565b50610100602083015260405180925260008252610120820191821061036e576000916040525290565b815161153a9291906001600160401b038116906017821161153d576115259150606060ff845192161790611ebf565b505b519061153161148c565b508051916120ef565b50565b5060ff81116115625761155c906115548351611b32565b50825161207b565b50611527565b61ffff81116115815761155c906115798351611acd565b50825161200d565b63ffffffff81116115a25761155c9061159a8351611a68565b508251611f9d565b61155c906115b083516119f8565b508251611f2a565b908151916115c461148c565b50825151600181019081811161165957602085015181101561161d575b60c260206105c59651928301015380518211611615575b505060405191602083015260208252611610826102ec565b6117b2565b5238806115f8565b8160011b94828604600214831517156116595760208161164f6105c59861164860c295519184611836565b508261191d565b50965050506115e1565b634e487b7160e01b600052601160045260246000fd5b906020820180921161165957565b9190820180921161165957565b80519061169561148c565b5081515160018101908181116116595760208401518110156116e3575b609f60208095519283010153805182116116db575b505001805190600182018092116116595752565b5238806116c7565b8160011b93828504600214831517156116595760208161170c8297611648609f95519184611836565b50955050506116b2565b601f1981019190821161165957565b80519061173061148c565b50815151600181019081811161165957602084015181101561177f575b60ff6020809551928301015380518211611777575b50500180516000198101919082116116595752565b523880611762565b8160011b9382850460021483151715611659576020816117a8829761164860ff95519184611836565b509550505061174d565b815161153a9291906001600160401b03811690601782116117e1576115259150604060ff845192161790611ebf565b5060ff81116117f85761155c906115548351611cc6565b61ffff811161180f5761155c906115798351611c61565b63ffffffff81116118285761155c9061159a8351611bfc565b61155c906115b08351611b97565b9061183f61148c565b50601f81168061186e575b508060208301526040519081835260008252810160200190811061036e5760405290565b60200360208111611659578101809111611659573861184a565b906001600160401b038116601781116118ab575060ff61153a9251911690611ebf565b905060ff81116118ca57816118c361153a9351611e5a565b505161207b565b61ffff81116118e857816118e161153a9351611df5565b505161200d565b63ffffffff8111611908578161190161153a9351611d90565b5051611f9d565b8161191661153a9351611d2b565b5051611f2a565b9061192661148c565b5080519061193261148c565b5061194081518311156120e8565b8251519161194e818461167d565b602092602086015182116119cb575b6020918651838151978201019682116119c3575b505001915b8082101561199b5750600019906020036101000a019081199051169082511617905290565b9091926119b76119b16119bd928651815261166f565b9461166f565b92611716565b90611976565b523880611971565b6119dd6119d7836119e2565b8761219b565b61195d565b908160011b918083046002149015171561165957565b611a0061148c565b508051516001810190818111611659576020830151811015611a39575b607b60208451928301015380518211611a3557505090565b5290565b8160011b8281046002148315171561165957611a6290611a5b85519186611836565b508461191d565b50611a1d565b611a7061148c565b508051516001810190818111611659576020830151811015611aa5575b607a60208451928301015380518211611a3557505090565b8160011b8281046002148315171561165957611ac790611a5b85519186611836565b50611a8d565b611ad561148c565b508051516001810190818111611659576020830151811015611b0a575b607960208451928301015380518211611a3557505090565b8160011b8281046002148315171561165957611b2c90611a5b85519186611836565b50611af2565b611b3a61148c565b508051516001810190818111611659576020830151811015611b6f575b607860208451928301015380518211611a3557505090565b8160011b8281046002148315171561165957611b9190611a5b85519186611836565b50611b57565b611b9f61148c565b508051516001810190818111611659576020830151811015611bd4575b605b60208451928301015380518211611a3557505090565b8160011b8281046002148315171561165957611bf690611a5b85519186611836565b50611bbc565b611c0461148c565b508051516001810190818111611659576020830151811015611c39575b605a60208451928301015380518211611a3557505090565b8160011b8281046002148315171561165957611c5b90611a5b85519186611836565b50611c21565b611c6961148c565b508051516001810190818111611659576020830151811015611c9e575b605960208451928301015380518211611a3557505090565b8160011b8281046002148315171561165957611cc090611a5b85519186611836565b50611c86565b611cce61148c565b508051516001810190818111611659576020830151811015611d03575b605860208451928301015380518211611a3557505090565b8160011b8281046002148315171561165957611d2590611a5b85519186611836565b50611ceb565b611d3361148c565b508051516001810190818111611659576020830151811015611d68575b601b60208451928301015380518211611a3557505090565b8160011b8281046002148315171561165957611d8a90611a5b85519186611836565b50611d50565b611d9861148c565b508051516001810190818111611659576020830151811015611dcd575b601a60208451928301015380518211611a3557505090565b8160011b8281046002148315171561165957611def90611a5b85519186611836565b50611db5565b611dfd61148c565b508051516001810190818111611659576020830151811015611e32575b601960208451928301015380518211611a3557505090565b8160011b8281046002148315171561165957611e5490611a5b85519186611836565b50611e1a565b611e6261148c565b508051516001810190818111611659576020830151811015611e97575b601860208451928301015380518211611a3557505090565b8160011b8281046002148315171561165957611eb990611a5b85519186611836565b50611e7f565b90611ec861148c565b508151516001810191828211611659576020840151821015611efb575b60208451928301015380518211611a3557505090565b8260011b8381046002148415171561165957611f2490611f1d86519187611836565b508561191d565b50611ee5565b90611f3361148c565b508151518060080191826008116116595760208401518311611f75575b6008845192830101906001600160401b031982511617905280518211611a3557505090565b8260011b8381046002148415171561165957611f9790611f1d86519187611836565b50611f50565b90611fa661148c565b508151518060040191826004116116595760208401518311611fe5575b60048451928301019063ffffffff1982511617905280518211611a3557505090565b8260011b838104600214841517156116595761200790611f1d86519187611836565b50611fc3565b9061201661148c565b508151518060020191826002116116595760208401518311612053575b60028451928301019061ffff1982511617905280518211611a3557505090565b8260011b838104600214841517156116595761207590611f1d86519187611836565b50612033565b9061208461148c565b5081515180600101918260011161165957602084015183116120c0575b60018451928301019060ff1982511617905280518211611a3557505090565b8260011b83810460021484151715611659576120e290611f1d86519187611836565b506120a1565b1561036e57565b91906120f961148c565b5061210781518311156120e8565b825151916020612117828561167d565b928193828701518111612184575b86518381519782010196821161217c575b505001915b808210156121605750600019906020036101000a019081199051169082511617905290565b9091926119b76119b1612176928651815261166f565b9061213b565b523880612136565b612196612190826119e2565b8861219b565b612125565b9061153a916121ac81519282611836565b5061191d56fec2575a0e9e593c00f959f8c92f12db2869c3395a3b0502d05e2516446f71f85b8a35acfbc15ff81a39ae7d344fd709f28e8600b4aa8c65c6b64bfe7fe36bd19ba26469706673582212202ca79bc48dbc50e974d0b8c8c730c03e2c1dd84edee7f2d51f26160bae2d0a9a64736f6c63430008180033","opcodes":"PUSH1 0xA0 DUP1 PUSH1 0x40 MSTORE CALLVALUE PUSH2 0xF0 JUMPI PUSH1 0x5 SLOAD PUSH1 0x1 PUSH1 0x1 PUSH1 0xA0 SHL SUB DUP2 AND PUSH1 0x80 MSTORE SWAP1 CALLER ISZERO PUSH2 0xAE JUMPI PUSH1 0x0 DUP1 SLOAD PUSH1 0x1 PUSH1 0x1 PUSH1 0xA0 SHL SUB NOT AND CALLER OR SWAP1 SSTORE PUSH1 0x1 PUSH1 0x1 PUSH1 0xE0 SHL SUB NOT DUP3 AND PUSH22 0xA57B83E47C2BC239B3BF370BC41E1459A34B41238D0 OR PUSH1 0x5 SSTORE PUSH32 0x66756E2D657468657265756D2D6D61696E6E65742D3100000000000000000000 PUSH1 0x6 SSTORE PUSH1 0x7 DUP1 SLOAD PUSH4 0xFFFFFFFF NOT AND PUSH3 0x493E0 OR SWAP1 SSTORE PUSH1 0x40 MLOAD PUSH2 0x2228 SWAP1 DUP2 PUSH2 0xF6 DUP3 CODECOPY PUSH1 0x80 MLOAD DUP2 DUP2 DUP2 PUSH2 0x10C ADD MSTORE PUSH2 0xFD0 ADD MSTORE RETURN JUMPDEST PUSH3 0x461BCD PUSH1 0xE5 SHL DUP2 MSTORE PUSH1 0x20 PUSH1 0x4 DUP3 ADD MSTORE PUSH1 0x18 PUSH1 0x24 DUP3 ADD MSTORE PUSH32 0x43616E6E6F7420736574206F776E657220746F207A65726F0000000000000000 PUSH1 0x44 DUP3 ADD MSTORE PUSH1 0x64 SWAP1 REVERT JUMPDEST PUSH1 0x0 DUP1 REVERT INVALID PUSH1 0x80 PUSH1 0x40 MSTORE PUSH1 0x4 DUP1 CALLDATASIZE LT ISZERO PUSH2 0x13 JUMPI PUSH1 0x0 DUP1 REVERT JUMPDEST PUSH1 0x0 SWAP1 DUP2 CALLDATALOAD PUSH1 0xE0 SHR SWAP2 DUP3 PUSH4 0xCA76175 EQ PUSH2 0xBD JUMPI POP POP DUP1 PUSH4 0x3944EA3A EQ PUSH2 0xB8 JUMPI DUP1 PUSH4 0x4B0795A8 EQ PUSH2 0xB3 JUMPI DUP1 PUSH4 0x65372147 EQ PUSH2 0xAE JUMPI DUP1 PUSH4 0x79BA5097 EQ PUSH2 0xA9 JUMPI DUP1 PUSH4 0x8DA5CB5B EQ PUSH2 0xA4 JUMPI DUP1 PUSH4 0x9681096F EQ PUSH2 0x9F JUMPI DUP1 PUSH4 0xB1E21749 EQ PUSH2 0x9A JUMPI DUP1 PUSH4 0xE1DA6C89 EQ PUSH2 0x95 JUMPI PUSH4 0xF2FDE38B EQ PUSH2 0x90 JUMPI PUSH1 0x0 DUP1 REVERT JUMPDEST PUSH2 0xA72 JUMP JUMPDEST PUSH2 0x965 JUMP JUMPDEST PUSH2 0x8A1 JUMP JUMPDEST PUSH2 0x82C JUMP JUMPDEST PUSH2 0x7ED JUMP JUMPDEST PUSH2 0x731 JUMP JUMPDEST PUSH2 0x64C JUMP JUMPDEST PUSH2 0x4F0 JUMP JUMPDEST PUSH2 0x41C JUMP JUMPDEST CALLVALUE PUSH2 0x2B8 JUMPI PUSH1 0x60 CALLDATASIZE PUSH1 0x3 NOT ADD SLT PUSH2 0x2B8 JUMPI DUP2 CALLDATALOAD PUSH1 0x24 CALLDATALOAD SWAP3 PUSH1 0x1 PUSH1 0x1 PUSH1 0x40 SHL SUB SWAP4 DUP5 DUP2 GT PUSH2 0x2B4 JUMPI PUSH2 0xF1 SWAP1 CALLDATASIZE SWAP1 DUP4 ADD PUSH2 0x373 JUMP JUMPDEST SWAP4 PUSH1 0x44 CALLDATALOAD DUP2 DUP2 GT PUSH2 0x2B0 JUMPI PUSH2 0x109 SWAP1 CALLDATASIZE SWAP1 DUP5 ADD PUSH2 0x373 JUMP JUMPDEST SWAP2 PUSH32 0x0 PUSH1 0x1 PUSH1 0x1 PUSH1 0xA0 SHL SUB AND CALLER SUB PUSH2 0x2A1 JUMPI DUP4 PUSH1 0x2 SLOAD SUB PUSH2 0x289 JUMPI POP DUP5 MLOAD SWAP1 DUP2 GT PUSH2 0x284 JUMPI PUSH2 0x161 DUP2 PUSH2 0x15C PUSH1 0x3 SLOAD PUSH2 0x391 JUMP JUMPDEST PUSH2 0xC5E JUMP JUMPDEST PUSH1 0x20 DUP1 PUSH1 0x1F DUP4 GT PUSH1 0x1 EQ PUSH2 0x204 JUMPI POP SWAP1 DUP1 PUSH2 0x198 SWAP3 DUP7 SWAP8 PUSH2 0x1A0 SWAP7 SWAP8 SWAP3 PUSH2 0x1F9 JUMPI JUMPDEST POP POP DUP2 PUSH1 0x1 SHL SWAP2 PUSH1 0x0 NOT SWAP1 PUSH1 0x3 SHL SHR NOT AND OR SWAP1 JUMP JUMPDEST PUSH1 0x3 SSTORE PUSH2 0xD1E JUMP JUMPDEST DUP1 PUSH32 0x7873807BF6DDC50401CD3D29BBE0DECEE23FD4D68D273F4B5EB83CDED4D2F172 PUSH1 0x40 MLOAD DUP1 PUSH2 0x1CF DUP2 PUSH2 0xE9D JUMP JUMPDEST SUB SWAP1 LOG2 PUSH32 0x85E1543BF2F84FE80C6BADBCE3648C8539AD1DF4D2B3D822938CA0538BE727E6 DUP3 DUP1 LOG2 DUP1 RETURN JUMPDEST ADD MLOAD SWAP1 POP DUP8 DUP1 PUSH2 0x183 JUMP JUMPDEST SWAP1 PUSH1 0x1F NOT DUP4 AND SWAP7 PUSH2 0x225 PUSH1 0x3 PUSH1 0x0 MSTORE PUSH1 0x0 DUP1 MLOAD PUSH1 0x20 PUSH2 0x21B3 DUP4 CODECOPY DUP2 MLOAD SWAP2 MSTORE SWAP1 JUMP JUMPDEST SWAP3 DUP8 SWAP1 JUMPDEST DUP10 DUP3 LT PUSH2 0x26C JUMPI POP POP SWAP1 DUP4 SWAP3 SWAP2 PUSH1 0x1 SWAP5 PUSH2 0x1A0 SWAP8 SWAP9 SWAP10 LT PUSH2 0x253 JUMPI JUMPDEST POP POP POP DUP2 SHL ADD PUSH1 0x3 SSTORE PUSH2 0xD1E JUMP JUMPDEST ADD MLOAD PUSH1 0x0 NOT PUSH1 0xF8 DUP5 PUSH1 0x3 SHL AND SHR NOT AND SWAP1 SSTORE DUP7 DUP1 DUP1 PUSH2 0x245 JUMP JUMPDEST DUP1 PUSH1 0x1 DUP6 SWAP7 DUP3 SWAP5 SWAP7 DUP7 ADD MLOAD DUP2 SSTORE ADD SWAP6 ADD SWAP4 ADD SWAP1 PUSH2 0x229 JUMP JUMPDEST PUSH2 0x2BB JUMP JUMPDEST PUSH1 0x40 MLOAD PUSH4 0xD068BF5B PUSH1 0xE0 SHL DUP2 MSTORE SWAP1 DUP2 ADD DUP5 SWAP1 MSTORE PUSH1 0x24 SWAP1 REVERT JUMPDEST PUSH1 0x40 MLOAD PUSH4 0xC6829F83 PUSH1 0xE0 SHL DUP2 MSTORE REVERT JUMPDEST DUP5 DUP1 REVERT JUMPDEST DUP4 DUP1 REVERT JUMPDEST DUP1 REVERT JUMPDEST PUSH4 0x4E487B71 PUSH1 0xE0 SHL PUSH1 0x0 MSTORE PUSH1 0x41 PUSH1 0x4 MSTORE PUSH1 0x24 PUSH1 0x0 REVERT JUMPDEST PUSH1 0xE0 DUP2 ADD SWAP1 DUP2 LT PUSH1 0x1 PUSH1 0x1 PUSH1 0x40 SHL SUB DUP3 GT OR PUSH2 0x284 JUMPI PUSH1 0x40 MSTORE JUMP JUMPDEST PUSH1 0x40 DUP2 ADD SWAP1 DUP2 LT PUSH1 0x1 PUSH1 0x1 PUSH1 0x40 SHL SUB DUP3 GT OR PUSH2 0x284 JUMPI PUSH1 0x40 MSTORE JUMP JUMPDEST SWAP1 PUSH1 0x1F DUP1 NOT SWAP2 ADD AND DUP2 ADD SWAP1 DUP2 LT PUSH1 0x1 PUSH1 0x1 PUSH1 0x40 SHL SUB DUP3 GT OR PUSH2 0x284 JUMPI PUSH1 0x40 MSTORE JUMP JUMPDEST SWAP3 SWAP2 SWAP3 PUSH1 0x1 PUSH1 0x1 PUSH1 0x40 SHL SUB DUP3 GT PUSH2 0x284 JUMPI PUSH1 0x40 MLOAD SWAP2 PUSH2 0x351 PUSH1 0x1F DUP3 ADD PUSH1 0x1F NOT AND PUSH1 0x20 ADD DUP5 PUSH2 0x307 JUMP JUMPDEST DUP3 SWAP5 DUP2 DUP5 MSTORE DUP2 DUP4 ADD GT PUSH2 0x36E JUMPI DUP3 DUP2 PUSH1 0x20 SWAP4 DUP5 PUSH1 0x0 SWAP7 ADD CALLDATACOPY ADD ADD MSTORE JUMP JUMPDEST PUSH1 0x0 DUP1 REVERT JUMPDEST SWAP1 DUP1 PUSH1 0x1F DUP4 ADD SLT ISZERO PUSH2 0x36E JUMPI DUP2 PUSH1 0x20 PUSH2 0x38E SWAP4 CALLDATALOAD SWAP2 ADD PUSH2 0x328 JUMP JUMPDEST SWAP1 JUMP JUMPDEST SWAP1 PUSH1 0x1 DUP3 DUP2 SHR SWAP3 AND DUP1 ISZERO PUSH2 0x3C1 JUMPI JUMPDEST PUSH1 0x20 DUP4 LT EQ PUSH2 0x3AB JUMPI JUMP JUMPDEST PUSH4 0x4E487B71 PUSH1 0xE0 SHL PUSH1 0x0 MSTORE PUSH1 0x22 PUSH1 0x4 MSTORE PUSH1 0x24 PUSH1 0x0 REVERT JUMPDEST SWAP2 PUSH1 0x7F AND SWAP2 PUSH2 0x3A0 JUMP JUMPDEST SWAP2 SWAP1 DUP3 MLOAD SWAP3 DUP4 DUP3 MSTORE PUSH1 0x0 JUMPDEST DUP5 DUP2 LT PUSH2 0x3F7 JUMPI POP POP DUP3 PUSH1 0x0 PUSH1 0x20 DUP1 SWAP5 SWAP6 DUP5 ADD ADD MSTORE PUSH1 0x1F DUP1 NOT SWAP2 ADD AND ADD ADD SWAP1 JUMP JUMPDEST PUSH1 0x20 DUP2 DUP4 ADD DUP2 ADD MLOAD DUP5 DUP4 ADD DUP3 ADD MSTORE ADD PUSH2 0x3D6 JUMP JUMPDEST SWAP1 PUSH1 0x20 PUSH2 0x38E SWAP3 DUP2 DUP2 MSTORE ADD SWAP1 PUSH2 0x3CB JUMP JUMPDEST CALLVALUE PUSH2 0x36E JUMPI PUSH1 0x0 DUP1 PUSH1 0x3 NOT CALLDATASIZE ADD SLT PUSH2 0x2B8 JUMPI PUSH1 0x40 MLOAD SWAP1 DUP1 PUSH1 0x3 SLOAD SWAP1 PUSH2 0x440 DUP3 PUSH2 0x391 JUMP JUMPDEST DUP1 DUP6 MSTORE SWAP2 PUSH1 0x20 SWAP2 PUSH1 0x1 SWAP2 DUP3 DUP2 AND SWAP1 DUP2 ISZERO PUSH2 0x4C3 JUMPI POP PUSH1 0x1 EQ PUSH2 0x47D JUMPI JUMPDEST PUSH2 0x479 DUP7 PUSH2 0x46D DUP2 DUP9 SUB DUP3 PUSH2 0x307 JUMP JUMPDEST PUSH1 0x40 MLOAD SWAP2 DUP3 SWAP2 DUP3 PUSH2 0x40B JUMP JUMPDEST SUB SWAP1 RETURN JUMPDEST SWAP4 POP PUSH1 0x3 DUP5 MSTORE PUSH1 0x0 DUP1 MLOAD PUSH1 0x20 PUSH2 0x21B3 DUP4 CODECOPY DUP2 MLOAD SWAP2 MSTORE JUMPDEST DUP4 DUP6 LT PUSH2 0x4B0 JUMPI POP POP POP POP DUP2 ADD PUSH1 0x20 ADD PUSH2 0x46D DUP3 PUSH2 0x479 CODESIZE PUSH2 0x45D JUMP JUMPDEST DUP1 SLOAD DUP7 DUP7 ADD DUP5 ADD MSTORE SWAP4 DUP3 ADD SWAP4 DUP2 ADD PUSH2 0x493 JUMP JUMPDEST SWAP1 POP DUP7 SWAP6 POP PUSH2 0x479 SWAP7 SWAP4 POP PUSH1 0x20 SWAP3 POP PUSH2 0x46D SWAP5 SWAP2 POP PUSH1 0xFF NOT AND DUP3 DUP5 ADD MSTORE ISZERO ISZERO PUSH1 0x5 SHL DUP3 ADD ADD SWAP3 SWAP4 CODESIZE PUSH2 0x45D JUMP JUMPDEST CALLVALUE PUSH2 0x36E JUMPI PUSH1 0x0 DUP1 PUSH1 0x3 NOT CALLDATASIZE ADD SLT PUSH2 0x2B8 JUMPI PUSH1 0x40 MLOAD SWAP1 DUP1 PUSH1 0x4 SLOAD SWAP1 PUSH2 0x514 DUP3 PUSH2 0x391 JUMP JUMPDEST DUP1 DUP6 MSTORE SWAP2 PUSH1 0x20 SWAP2 PUSH1 0x1 SWAP2 DUP3 DUP2 AND SWAP1 DUP2 ISZERO PUSH2 0x4C3 JUMPI POP PUSH1 0x1 EQ PUSH2 0x540 JUMPI PUSH2 0x479 DUP7 PUSH2 0x46D DUP2 DUP9 SUB DUP3 PUSH2 0x307 JUMP JUMPDEST SWAP4 POP PUSH1 0x4 DUP5 MSTORE PUSH1 0x0 DUP1 MLOAD PUSH1 0x20 PUSH2 0x21D3 DUP4 CODECOPY DUP2 MLOAD SWAP2 MSTORE JUMPDEST DUP4 DUP6 LT PUSH2 0x573 JUMPI POP POP POP POP DUP2 ADD PUSH1 0x20 ADD PUSH2 0x46D DUP3 PUSH2 0x479 CODESIZE PUSH2 0x45D JUMP JUMPDEST DUP1 SLOAD DUP7 DUP7 ADD DUP5 ADD MSTORE SWAP4 DUP3 ADD SWAP4 DUP2 ADD PUSH2 0x556 JUMP JUMPDEST PUSH1 0x40 MLOAD SWAP1 PUSH1 0x0 DUP3 PUSH1 0x9 SLOAD SWAP2 PUSH2 0x59A DUP4 PUSH2 0x391 JUMP JUMPDEST DUP1 DUP4 MSTORE SWAP3 PUSH1 0x20 SWAP1 PUSH1 0x1 SWAP1 DUP2 DUP2 AND SWAP1 DUP2 ISZERO PUSH2 0x628 JUMPI POP PUSH1 0x1 EQ PUSH2 0x5C7 JUMPI JUMPDEST POP POP PUSH2 0x5C5 SWAP3 POP SUB DUP4 PUSH2 0x307 JUMP JUMPDEST JUMP JUMPDEST SWAP2 POP SWAP3 PUSH1 0x9 PUSH1 0x0 MSTORE PUSH32 0x6E1540171B6C0C960B71A7020D9F60077F6AF931A8BBF590DA0223DACF75C7AF SWAP4 PUSH1 0x0 SWAP3 JUMPDEST DUP3 DUP5 LT PUSH2 0x610 JUMPI POP PUSH2 0x5C5 SWAP5 POP POP POP DUP2 ADD PUSH1 0x20 ADD CODESIZE DUP1 PUSH2 0x5B7 JUMP JUMPDEST DUP6 SLOAD DUP9 DUP6 ADD DUP4 ADD MSTORE SWAP5 DUP6 ADD SWAP5 DUP8 SWAP5 POP SWAP3 DUP2 ADD SWAP3 PUSH2 0x5F5 JUMP JUMPDEST SWAP2 POP POP PUSH1 0x20 SWAP3 POP PUSH2 0x5C5 SWAP5 SWAP2 POP PUSH1 0xFF NOT AND DUP3 DUP5 ADD MSTORE ISZERO ISZERO PUSH1 0x5 SHL DUP3 ADD ADD CODESIZE DUP1 PUSH2 0x5B7 JUMP JUMPDEST CALLVALUE PUSH2 0x36E JUMPI PUSH1 0x0 DUP1 PUSH1 0x3 NOT CALLDATASIZE ADD SLT PUSH2 0x2B8 JUMPI PUSH1 0x40 MLOAD SWAP1 DUP1 DUP3 PUSH1 0x8 SLOAD SWAP2 PUSH2 0x671 DUP4 PUSH2 0x391 JUMP JUMPDEST SWAP3 DUP4 DUP4 MSTORE PUSH1 0x20 SWAP5 PUSH1 0x1 SWAP2 DUP7 PUSH1 0x1 DUP3 AND SWAP2 DUP3 PUSH1 0x0 EQ PUSH2 0x70F JUMPI POP POP PUSH1 0x1 EQ PUSH2 0x6B5 JUMPI JUMPDEST POP POP PUSH2 0x6A1 SWAP3 POP SUB DUP4 PUSH2 0x307 JUMP JUMPDEST PUSH2 0x479 PUSH1 0x40 MLOAD SWAP3 DUP3 DUP5 SWAP4 DUP5 MSTORE DUP4 ADD SWAP1 PUSH2 0x3CB JUMP JUMPDEST SWAP1 DUP6 SWAP3 POP PUSH1 0x8 DUP3 MSTORE PUSH32 0xF3F7A9FE364FAAB93B216DA50A3214154F22A0A2B415B23A84C8169E8B636EE3 JUMPDEST DUP6 DUP4 LT PUSH2 0x6F7 JUMPI POP POP PUSH2 0x6A1 SWAP4 POP DUP3 ADD ADD CODESIZE DUP1 PUSH2 0x693 JUMP JUMPDEST DUP1 SLOAD DUP4 DUP10 ADD DUP6 ADD MSTORE DUP8 SWAP5 POP DUP7 SWAP4 SWAP1 SWAP3 ADD SWAP2 DUP2 ADD PUSH2 0x6DF JUMP JUMPDEST SWAP3 POP SWAP4 POP POP PUSH2 0x6A1 SWAP5 SWAP2 POP PUSH1 0xFF NOT AND DUP3 DUP5 ADD MSTORE ISZERO ISZERO PUSH1 0x5 SHL DUP3 ADD ADD CODESIZE DUP1 PUSH2 0x693 JUMP JUMPDEST CALLVALUE PUSH2 0x36E JUMPI PUSH1 0x0 DUP1 PUSH1 0x3 NOT CALLDATASIZE ADD SLT PUSH2 0x2B8 JUMPI PUSH1 0x1 SLOAD PUSH1 0x1 PUSH1 0x1 PUSH1 0xA0 SHL SUB SWAP1 DUP2 AND CALLER SUB PUSH2 0x7AF JUMPI DUP2 SLOAD PUSH1 0x1 PUSH1 0x1 PUSH1 0xA0 SHL SUB AND PUSH1 0x0 DUP1 SLOAD PUSH1 0x1 PUSH1 0x1 PUSH1 0xA0 SHL SUB NOT AND CALLER OR SWAP1 SSTORE SWAP1 PUSH1 0x1 DUP1 SLOAD PUSH1 0x1 PUSH1 0x1 PUSH1 0xA0 SHL SUB NOT AND SWAP1 SSTORE CALLER SWAP2 AND PUSH32 0x8BE0079C531659141344CD1FD0A4F28419497F9722A3DAAFE3B4186F6B6457E0 DUP4 DUP1 LOG3 DUP1 RETURN JUMPDEST PUSH1 0x40 MLOAD PUSH3 0x461BCD PUSH1 0xE5 SHL DUP2 MSTORE PUSH1 0x20 PUSH1 0x4 DUP3 ADD MSTORE PUSH1 0x16 PUSH1 0x24 DUP3 ADD MSTORE PUSH22 0x26BAB9BA10313290383937B837B9B2B21037BBB732B9 PUSH1 0x51 SHL PUSH1 0x44 DUP3 ADD MSTORE PUSH1 0x64 SWAP1 REVERT JUMPDEST CALLVALUE PUSH2 0x36E JUMPI PUSH1 0x0 CALLDATASIZE PUSH1 0x3 NOT ADD SLT PUSH2 0x36E JUMPI PUSH1 0x0 SLOAD PUSH1 0x40 MLOAD PUSH1 0x1 PUSH1 0x1 PUSH1 0xA0 SHL SUB SWAP1 SWAP2 AND DUP2 MSTORE PUSH1 0x20 SWAP1 RETURN JUMPDEST PUSH1 0x84 CALLDATALOAD SWAP1 PUSH1 0x1 PUSH1 0x1 PUSH1 0x40 SHL SUB DUP3 AND DUP3 SUB PUSH2 0x36E JUMPI JUMP JUMPDEST CALLVALUE PUSH2 0x36E JUMPI PUSH1 0x80 CALLDATASIZE PUSH1 0x3 NOT ADD SLT PUSH2 0x36E JUMPI PUSH1 0x1 PUSH1 0x1 PUSH1 0x40 SHL SUB PUSH1 0x4 CALLDATALOAD DUP2 DUP2 GT PUSH2 0x36E JUMPI PUSH2 0x85D SWAP1 CALLDATASIZE SWAP1 PUSH1 0x4 ADD PUSH2 0x373 JUMP JUMPDEST SWAP1 PUSH1 0x24 CALLDATALOAD SWAP1 DUP2 AND DUP2 SUB PUSH2 0x36E JUMPI PUSH1 0x44 CALLDATALOAD SWAP2 PUSH4 0xFFFFFFFF DUP4 AND DUP4 SUB PUSH2 0x36E JUMPI PUSH2 0x479 SWAP3 PUSH2 0x88C SWAP3 PUSH1 0x64 CALLDATALOAD SWAP3 PUSH2 0xF78 JUMP JUMPDEST DUP1 PUSH1 0x2 SSTORE PUSH1 0x40 MLOAD SWAP2 DUP3 SWAP2 DUP3 SWAP2 SWAP1 PUSH1 0x20 DUP4 ADD SWAP3 MSTORE JUMP JUMPDEST CALLVALUE PUSH2 0x36E JUMPI PUSH1 0x0 CALLDATASIZE PUSH1 0x3 NOT ADD SLT PUSH2 0x36E JUMPI PUSH1 0x20 PUSH1 0x2 SLOAD PUSH1 0x40 MLOAD SWAP1 DUP2 MSTORE RETURN JUMPDEST PUSH1 0x1 PUSH1 0x1 PUSH1 0x40 SHL SUB DUP2 GT PUSH2 0x284 JUMPI PUSH1 0x5 SHL PUSH1 0x20 ADD SWAP1 JUMP JUMPDEST DUP2 PUSH1 0x1F DUP3 ADD SLT ISZERO PUSH2 0x36E JUMPI DUP1 CALLDATALOAD SWAP2 PUSH1 0x20 SWAP2 PUSH2 0x8F0 DUP5 PUSH2 0x8BF JUMP JUMPDEST SWAP4 PUSH2 0x8FE PUSH1 0x40 MLOAD SWAP6 DUP7 PUSH2 0x307 JUMP JUMPDEST DUP1 DUP6 MSTORE DUP4 DUP1 DUP7 ADD SWAP2 PUSH1 0x5 SHL DUP4 ADD ADD SWAP3 DUP1 DUP5 GT PUSH2 0x36E JUMPI DUP5 DUP4 ADD SWAP2 JUMPDEST DUP5 DUP4 LT PUSH2 0x929 JUMPI POP POP POP POP POP POP SWAP1 JUMP JUMPDEST DUP3 CALLDATALOAD PUSH1 0x1 PUSH1 0x1 PUSH1 0x40 SHL SUB DUP2 GT PUSH2 0x36E JUMPI DUP7 SWAP2 PUSH2 0x94A DUP5 DUP5 DUP1 SWAP5 DUP10 ADD ADD PUSH2 0x373 JUMP JUMPDEST DUP2 MSTORE ADD SWAP3 ADD SWAP2 PUSH2 0x919 JUMP JUMPDEST PUSH1 0x64 CALLDATALOAD SWAP1 PUSH1 0xFF DUP3 AND DUP3 SUB PUSH2 0x36E JUMPI JUMP JUMPDEST CALLVALUE PUSH2 0x36E JUMPI PUSH1 0xA0 CALLDATASIZE PUSH1 0x3 NOT ADD SLT PUSH2 0x36E JUMPI PUSH1 0x4 CALLDATALOAD PUSH1 0x1 PUSH1 0x1 PUSH1 0x40 SHL SUB DUP1 DUP3 GT PUSH2 0x36E JUMPI CALLDATASIZE PUSH1 0x23 DUP4 ADD SLT ISZERO PUSH2 0x36E JUMPI DUP2 PUSH1 0x4 ADD CALLDATALOAD PUSH1 0x24 SWAP3 PUSH2 0x9A4 DUP3 PUSH2 0x8BF JUMP JUMPDEST SWAP4 PUSH2 0x9B2 PUSH1 0x40 MLOAD SWAP6 DUP7 PUSH2 0x307 JUMP JUMPDEST DUP3 DUP6 MSTORE PUSH1 0x20 SWAP3 PUSH1 0x24 PUSH1 0x20 DUP8 ADD SWAP2 PUSH1 0x5 SHL DUP5 ADD ADD SWAP3 CALLDATASIZE DUP5 GT PUSH2 0x36E JUMPI PUSH1 0x24 DUP2 ADD SWAP2 JUMPDEST DUP5 DUP4 LT PUSH2 0xA3B JUMPI DUP8 DUP8 PUSH1 0x24 CALLDATALOAD DUP2 DUP2 GT PUSH2 0x36E JUMPI PUSH2 0x9F4 SWAP1 CALLDATASIZE SWAP1 PUSH1 0x4 ADD PUSH2 0x8D6 JUMP JUMPDEST SWAP2 PUSH1 0x44 CALLDATALOAD SWAP2 DUP3 GT PUSH2 0x36E JUMPI PUSH2 0x479 SWAP3 PUSH2 0xA14 PUSH2 0xA2B SWAP4 CALLDATASIZE SWAP1 PUSH1 0x4 ADD PUSH2 0x373 JUMP JUMPDEST PUSH2 0xA1C PUSH2 0x955 JUMP JUMPDEST SWAP2 PUSH2 0xA25 PUSH2 0x816 JUMP JUMPDEST SWAP4 PUSH2 0xB67 JUMP JUMPDEST PUSH1 0x40 MLOAD SWAP1 DUP2 MSTORE SWAP1 DUP2 SWAP1 PUSH1 0x20 DUP3 ADD SWAP1 JUMP JUMPDEST DUP3 CALLDATALOAD DUP8 DUP2 GT PUSH2 0x36E JUMPI DUP3 ADD CALLDATASIZE PUSH1 0x43 DUP3 ADD SLT ISZERO PUSH2 0x36E JUMPI DUP7 SWAP2 PUSH2 0xA67 DUP4 SWAP3 CALLDATASIZE SWAP1 PUSH1 0x44 DUP10 DUP3 ADD CALLDATALOAD SWAP2 ADD PUSH2 0x328 JUMP JUMPDEST DUP2 MSTORE ADD SWAP3 ADD SWAP2 PUSH2 0x9D3 JUMP JUMPDEST CALLVALUE PUSH2 0x36E JUMPI PUSH1 0x20 CALLDATASIZE PUSH1 0x3 NOT ADD SLT PUSH2 0x36E JUMPI PUSH1 0x4 CALLDATALOAD PUSH1 0x1 PUSH1 0x1 PUSH1 0xA0 SHL SUB DUP2 DUP2 AND SWAP2 DUP3 SWAP1 SUB PUSH2 0x36E JUMPI PUSH1 0x0 SLOAD AND DUP1 CALLER SUB PUSH2 0xB29 JUMPI CALLER DUP3 EQ PUSH2 0xAE4 JUMPI PUSH1 0x1 DUP1 SLOAD PUSH1 0x1 PUSH1 0x1 PUSH1 0xA0 SHL SUB NOT AND DUP4 OR SWAP1 SSTORE PUSH32 0xED8889F560326EB138920D842192F0EB3DD22B4F139C87A2C57538E05BAE1278 PUSH1 0x0 DUP1 LOG3 STOP JUMPDEST PUSH1 0x40 MLOAD PUSH3 0x461BCD PUSH1 0xE5 SHL DUP2 MSTORE PUSH1 0x20 PUSH1 0x4 DUP3 ADD MSTORE PUSH1 0x17 PUSH1 0x24 DUP3 ADD MSTORE PUSH32 0x43616E6E6F74207472616E7366657220746F2073656C66000000000000000000 PUSH1 0x44 DUP3 ADD MSTORE PUSH1 0x64 SWAP1 REVERT JUMPDEST PUSH1 0x40 MLOAD PUSH3 0x461BCD PUSH1 0xE5 SHL DUP2 MSTORE PUSH1 0x20 PUSH1 0x4 DUP3 ADD MSTORE PUSH1 0x16 PUSH1 0x24 DUP3 ADD MSTORE PUSH22 0x27B7363C9031B0B63630B1363290313C9037BBB732B9 PUSH1 0x51 SHL PUSH1 0x44 DUP3 ADD MSTORE PUSH1 0x64 SWAP1 REVERT JUMPDEST SWAP1 PUSH2 0xC0F SWAP5 SWAP2 PUSH2 0xC0A SWAP5 PUSH2 0xBE8 SWAP5 PUSH1 0x40 MLOAD SWAP5 PUSH2 0xB82 DUP7 PUSH2 0x2D1 JUMP JUMPDEST PUSH1 0x0 DUP7 MSTORE PUSH1 0x0 PUSH1 0x20 DUP8 ADD MSTORE PUSH1 0x0 PUSH1 0x40 DUP8 ADD MSTORE PUSH1 0x60 DUP1 DUP8 ADD MSTORE PUSH1 0x60 PUSH1 0x80 DUP8 ADD MSTORE PUSH1 0x60 PUSH1 0xA0 DUP8 ADD MSTORE PUSH1 0x60 PUSH1 0xC0 DUP8 ADD MSTORE PUSH2 0xBC0 PUSH2 0xBBA PUSH2 0x586 JUMP JUMPDEST DUP8 PUSH2 0x1463 JUMP JUMPDEST DUP2 MLOAD ISZERO PUSH2 0xC35 JUMPI POP PUSH2 0xBD3 SWAP2 POP DUP5 PUSH2 0x110E JUMP JUMPDEST DUP1 MLOAD PUSH2 0xC25 JUMPI JUMPDEST POP DUP1 MLOAD PUSH2 0xC15 JUMPI JUMPDEST POP PUSH2 0x1295 JUMP JUMPDEST PUSH1 0x5 SLOAD PUSH1 0xA0 SHR PUSH1 0x1 PUSH1 0x1 PUSH1 0x40 SHL SUB AND PUSH1 0x7 SLOAD PUSH4 0xFFFFFFFF AND SWAP1 PUSH1 0x6 SLOAD SWAP3 PUSH2 0xF78 JUMP JUMPDEST PUSH1 0x2 SSTORE JUMP JUMPDEST PUSH1 0x2 SLOAD SWAP1 JUMP JUMPDEST PUSH2 0xC1F SWAP1 DUP3 PUSH2 0x1153 JUMP JUMPDEST CODESIZE PUSH2 0xBE2 JUMP JUMPDEST PUSH2 0xC2F SWAP1 DUP4 PUSH2 0x1134 JUMP JUMPDEST CODESIZE PUSH2 0xBDA JUMP JUMPDEST SWAP1 POP PUSH1 0x1 PUSH1 0x1 PUSH1 0x40 SHL SUB DUP2 AND PUSH2 0xC4D JUMPI JUMPDEST POP POP PUSH2 0xBD3 JUMP JUMPDEST PUSH2 0xC57 SWAP2 DUP6 PUSH2 0x108C JUMP JUMPDEST CODESIZE DUP1 PUSH2 0xC46 JUMP JUMPDEST PUSH1 0x1F DUP2 GT PUSH2 0xC6A JUMPI POP POP JUMP JUMPDEST PUSH1 0x0 SWAP1 PUSH1 0x3 PUSH1 0x0 MSTORE PUSH1 0x0 DUP1 MLOAD PUSH1 0x20 PUSH2 0x21B3 DUP4 CODECOPY DUP2 MLOAD SWAP2 MSTORE SWAP1 PUSH1 0x20 PUSH1 0x1F DUP6 ADD PUSH1 0x5 SHR DUP4 ADD SWAP5 LT PUSH2 0xCB4 JUMPI JUMPDEST PUSH1 0x1F ADD PUSH1 0x5 SHR ADD SWAP2 JUMPDEST DUP3 DUP2 LT PUSH2 0xCA9 JUMPI POP POP POP JUMP JUMPDEST DUP2 DUP2 SSTORE PUSH1 0x1 ADD PUSH2 0xC9D JUMP JUMPDEST SWAP1 SWAP3 POP DUP3 SWAP1 PUSH2 0xC94 JUMP JUMPDEST PUSH1 0x1F DUP2 GT PUSH2 0xCCA JUMPI POP POP JUMP JUMPDEST PUSH1 0x0 SWAP1 PUSH1 0x4 PUSH1 0x0 MSTORE PUSH1 0x0 DUP1 MLOAD PUSH1 0x20 PUSH2 0x21D3 DUP4 CODECOPY DUP2 MLOAD SWAP2 MSTORE SWAP1 PUSH1 0x20 PUSH1 0x1F DUP6 ADD PUSH1 0x5 SHR DUP4 ADD SWAP5 LT PUSH2 0xD14 JUMPI JUMPDEST PUSH1 0x1F ADD PUSH1 0x5 SHR ADD SWAP2 JUMPDEST DUP3 DUP2 LT PUSH2 0xD09 JUMPI POP POP POP JUMP JUMPDEST DUP2 DUP2 SSTORE PUSH1 0x1 ADD PUSH2 0xCFD JUMP JUMPDEST SWAP1 SWAP3 POP DUP3 SWAP1 PUSH2 0xCF4 JUMP JUMPDEST SWAP1 DUP2 MLOAD PUSH1 0x1 PUSH1 0x1 PUSH1 0x40 SHL SUB DUP2 GT PUSH2 0x284 JUMPI PUSH2 0xD43 DUP2 PUSH2 0xD3E PUSH1 0x4 SLOAD PUSH2 0x391 JUMP JUMPDEST PUSH2 0xCBE JUMP JUMPDEST PUSH1 0x20 DUP1 PUSH1 0x1F DUP4 GT PUSH1 0x1 EQ PUSH2 0xD85 JUMPI POP DUP2 SWAP1 PUSH2 0xD75 SWAP4 SWAP5 PUSH1 0x0 SWAP3 PUSH2 0xD7A JUMPI POP POP DUP2 PUSH1 0x1 SHL SWAP2 PUSH1 0x0 NOT SWAP1 PUSH1 0x3 SHL SHR NOT AND OR SWAP1 JUMP JUMPDEST PUSH1 0x4 SSTORE JUMP JUMPDEST ADD MLOAD SWAP1 POP CODESIZE DUP1 PUSH2 0x183 JUMP JUMPDEST SWAP1 PUSH1 0x1F NOT DUP4 AND SWAP5 PUSH2 0xDA6 PUSH1 0x4 PUSH1 0x0 MSTORE PUSH1 0x0 DUP1 MLOAD PUSH1 0x20 PUSH2 0x21D3 DUP4 CODECOPY DUP2 MLOAD SWAP2 MSTORE SWAP1 JUMP JUMPDEST SWAP3 PUSH1 0x0 SWAP1 JUMPDEST DUP8 DUP3 LT PUSH2 0xDE3 JUMPI POP POP DUP4 PUSH1 0x1 SWAP6 SWAP7 LT PUSH2 0xDCA JUMPI JUMPDEST POP POP POP DUP2 SHL ADD PUSH1 0x4 SSTORE JUMP JUMPDEST ADD MLOAD PUSH1 0x0 NOT PUSH1 0xF8 DUP5 PUSH1 0x3 SHL AND SHR NOT AND SWAP1 SSTORE CODESIZE DUP1 DUP1 PUSH2 0xDBF JUMP JUMPDEST DUP1 PUSH1 0x1 DUP6 SWAP7 DUP3 SWAP5 SWAP7 DUP7 ADD MLOAD DUP2 SSTORE ADD SWAP6 ADD SWAP4 ADD SWAP1 PUSH2 0xDAB JUMP JUMPDEST PUSH1 0x4 SLOAD PUSH1 0x0 SWAP3 SWAP2 PUSH2 0xE0B DUP3 PUSH2 0x391 JUMP JUMPDEST DUP1 DUP3 MSTORE SWAP2 PUSH1 0x20 SWAP1 PUSH1 0x1 SWAP1 DUP2 DUP2 AND SWAP1 DUP2 ISZERO PUSH2 0xE78 JUMPI POP PUSH1 0x1 EQ PUSH2 0xE2E JUMPI JUMPDEST POP POP POP POP JUMP JUMPDEST SWAP3 SWAP4 SWAP5 POP PUSH1 0x4 PUSH1 0x0 MSTORE PUSH1 0x0 DUP1 MLOAD PUSH1 0x20 PUSH2 0x21D3 DUP4 CODECOPY DUP2 MLOAD SWAP2 MSTORE SWAP3 PUSH1 0x0 SWAP4 JUMPDEST DUP6 DUP6 LT PUSH2 0xE65 JUMPI POP POP POP PUSH1 0x20 SWAP3 POP ADD ADD SWAP1 CODESIZE DUP1 DUP1 DUP1 PUSH2 0xE28 JUMP JUMPDEST DUP1 SLOAD DUP6 DUP6 ADD DUP5 ADD MSTORE SWAP4 DUP3 ADD SWAP4 DUP2 ADD PUSH2 0xE4B JUMP JUMPDEST SWAP3 POP POP POP PUSH1 0x20 SWAP4 SWAP5 POP PUSH1 0xFF SWAP3 SWAP2 SWAP3 NOT AND DUP4 DUP4 ADD MSTORE ISZERO ISZERO PUSH1 0x5 SHL ADD ADD SWAP1 CODESIZE DUP1 DUP1 DUP1 PUSH2 0xE28 JUMP JUMPDEST SWAP1 PUSH1 0x40 DUP3 MSTORE PUSH1 0x0 PUSH1 0x3 SLOAD SWAP3 PUSH2 0xEB1 DUP5 PUSH2 0x391 JUMP JUMPDEST DUP1 PUSH1 0x40 DUP4 ADD MSTORE PUSH1 0x60 SWAP5 PUSH1 0x1 SWAP1 PUSH1 0x1 DUP2 AND SWAP1 DUP2 PUSH1 0x0 EQ PUSH2 0xF36 JUMPI POP PUSH1 0x1 EQ PUSH2 0xEE8 JUMPI JUMPDEST POP POP PUSH2 0x38E SWAP3 SWAP4 POP PUSH1 0x20 DUP2 DUP4 SUB SWAP2 ADD MSTORE PUSH2 0xDFB JUMP JUMPDEST PUSH1 0x3 PUSH1 0x0 SWAP1 DUP2 MSTORE SWAP6 SWAP3 SWAP4 POP PUSH1 0x0 DUP1 MLOAD PUSH1 0x20 PUSH2 0x21B3 DUP4 CODECOPY DUP2 MLOAD SWAP2 MSTORE JUMPDEST DUP3 DUP8 LT PUSH2 0xF21 JUMPI POP POP POP POP PUSH1 0x60 PUSH2 0x38E SWAP3 SWAP4 DUP3 ADD ADD SWAP1 DUP4 SWAP3 CODESIZE PUSH2 0xED3 JUMP JUMPDEST DUP1 SLOAD DUP8 DUP7 ADD DUP6 ADD MSTORE PUSH1 0x20 SWAP1 SWAP7 ADD SWAP6 DUP2 ADD PUSH2 0xF03 JUMP JUMPDEST SWAP2 POP POP PUSH2 0x38E SWAP5 SWAP6 POP PUSH1 0x60 SWAP3 SWAP4 POP PUSH1 0xFF NOT AND DUP3 DUP5 ADD MSTORE ISZERO ISZERO PUSH1 0x5 SHL DUP3 ADD ADD SWAP1 DUP4 SWAP3 CODESIZE PUSH2 0xED3 JUMP JUMPDEST SWAP1 DUP2 PUSH1 0x20 SWAP2 SUB SLT PUSH2 0x36E JUMPI MLOAD SWAP1 JUMP JUMPDEST PUSH1 0x40 MLOAD RETURNDATASIZE PUSH1 0x0 DUP3 RETURNDATACOPY RETURNDATASIZE SWAP1 REVERT JUMPDEST SWAP3 SWAP1 PUSH1 0x20 SWAP3 PUSH1 0x1 PUSH1 0x1 PUSH1 0x40 SHL SUB SWAP3 PUSH4 0xFFFFFFFF PUSH2 0xFB7 PUSH1 0x40 MLOAD SWAP8 DUP9 SWAP7 DUP8 SWAP7 PUSH4 0x230E93B1 PUSH1 0xE1 SHL DUP9 MSTORE AND PUSH1 0x4 DUP8 ADD MSTORE PUSH1 0xA0 PUSH1 0x24 DUP8 ADD MSTORE PUSH1 0xA4 DUP7 ADD SWAP1 PUSH2 0x3CB JUMP JUMPDEST PUSH1 0x1 PUSH1 0x44 DUP7 ADD MSTORE SWAP3 AND PUSH1 0x64 DUP5 ADD MSTORE PUSH1 0x84 DUP4 ADD MSTORE SUB DUP2 PUSH1 0x0 PUSH32 0x0 PUSH1 0x1 PUSH1 0x1 PUSH1 0xA0 SHL SUB AND GAS CALL SWAP1 DUP2 ISZERO PUSH2 0x1062 JUMPI PUSH1 0x0 SWAP2 PUSH2 0x1033 JUMPI JUMPDEST POP DUP1 PUSH32 0x1131472297A800FEE664D1D89CFA8F7676FF07189ECC53F80BBB5F4969099DB8 PUSH1 0x0 DUP1 LOG2 SWAP1 JUMP JUMPDEST PUSH2 0x1055 SWAP2 POP PUSH1 0x20 RETURNDATASIZE PUSH1 0x20 GT PUSH2 0x105B JUMPI JUMPDEST PUSH2 0x104D DUP2 DUP4 PUSH2 0x307 JUMP JUMPDEST DUP2 ADD SWAP1 PUSH2 0xF5D JUMP JUMPDEST CODESIZE PUSH2 0x1009 JUMP JUMPDEST POP RETURNDATASIZE PUSH2 0x1043 JUMP JUMPDEST PUSH2 0xF6C JUMP JUMPDEST PUSH4 0x4E487B71 PUSH1 0xE0 SHL PUSH1 0x0 MSTORE PUSH1 0x21 PUSH1 0x4 MSTORE PUSH1 0x24 PUSH1 0x0 REVERT JUMPDEST PUSH1 0x3 GT ISZERO PUSH2 0x1087 JUMPI JUMP JUMPDEST PUSH2 0x1067 JUMP JUMPDEST SWAP2 SWAP1 PUSH2 0x1100 PUSH1 0x80 SWAP3 PUSH2 0x10D1 PUSH1 0xFF PUSH2 0x10A1 PUSH2 0x14A6 JUMP JUMPDEST SWAP5 PUSH2 0x10CA PUSH1 0x40 MLOAD PUSH2 0x10B1 DUP2 PUSH2 0x2EC JUMP JUMPDEST PUSH1 0x6 DUP2 MSTORE PUSH6 0x1CDB1BDD1251 PUSH1 0xD2 SHL PUSH1 0x20 DUP3 ADD MSTORE DUP8 PUSH2 0x14F6 JUMP JUMPDEST AND DUP5 PUSH2 0x1888 JUMP JUMPDEST PUSH2 0x10FA PUSH1 0x40 MLOAD PUSH2 0x10E0 DUP2 PUSH2 0x2EC JUMP JUMPDEST PUSH1 0x7 DUP2 MSTORE PUSH7 0x3B32B939B4B7B7 PUSH1 0xC9 SHL PUSH1 0x20 DUP3 ADD MSTORE DUP5 PUSH2 0x14F6 JUMP JUMPDEST DUP3 PUSH2 0x1888 JUMP JUMPDEST PUSH1 0x2 PUSH1 0x20 DUP5 ADD MSTORE MLOAD MLOAD SWAP2 ADD MSTORE JUMP JUMPDEST DUP2 MLOAD ISZERO PUSH2 0x1122 JUMPI PUSH1 0x1 PUSH1 0x20 DUP3 ADD MSTORE PUSH1 0x80 ADD MSTORE JUMP JUMPDEST PUSH1 0x40 MLOAD PUSH4 0xE889636F PUSH1 0xE0 SHL DUP2 MSTORE PUSH1 0x4 SWAP1 REVERT JUMPDEST DUP2 MLOAD ISZERO PUSH2 0x1141 JUMPI PUSH1 0xA0 ADD MSTORE JUMP JUMPDEST PUSH1 0x40 MLOAD PUSH4 0xFE936CB7 PUSH1 0xE0 SHL DUP2 MSTORE PUSH1 0x4 SWAP1 REVERT JUMPDEST DUP2 MLOAD ISZERO PUSH2 0x1141 JUMPI PUSH1 0xC0 ADD MSTORE JUMP JUMPDEST PUSH1 0x40 MLOAD SWAP1 PUSH2 0x116D DUP3 PUSH2 0x2EC JUMP JUMPDEST PUSH1 0xC DUP3 MSTORE PUSH12 0x31B7B232A637B1B0BA34B7B7 PUSH1 0xA1 SHL PUSH1 0x20 DUP4 ADD MSTORE JUMP JUMPDEST PUSH1 0x40 MLOAD SWAP1 PUSH2 0x1195 DUP3 PUSH2 0x2EC JUMP JUMPDEST PUSH1 0x8 DUP3 MSTORE PUSH8 0x6C616E6775616765 PUSH1 0xC0 SHL PUSH1 0x20 DUP4 ADD MSTORE JUMP JUMPDEST PUSH1 0x1 GT ISZERO PUSH2 0x1087 JUMPI JUMP JUMPDEST PUSH1 0x40 MLOAD SWAP1 PUSH2 0x11C3 DUP3 PUSH2 0x2EC JUMP JUMPDEST PUSH1 0x6 DUP3 MSTORE PUSH6 0x736F75726365 PUSH1 0xD0 SHL PUSH1 0x20 DUP4 ADD MSTORE JUMP JUMPDEST PUSH1 0x40 MLOAD SWAP1 PUSH2 0x11E5 DUP3 PUSH2 0x2EC JUMP JUMPDEST PUSH1 0x4 DUP3 MSTORE PUSH4 0x61726773 PUSH1 0xE0 SHL PUSH1 0x20 DUP4 ADD MSTORE JUMP JUMPDEST DUP1 MLOAD DUP3 LT ISZERO PUSH2 0x120C JUMPI PUSH1 0x20 SWAP2 PUSH1 0x5 SHL ADD ADD SWAP1 JUMP JUMPDEST PUSH4 0x4E487B71 PUSH1 0xE0 SHL PUSH1 0x0 MSTORE PUSH1 0x32 PUSH1 0x4 MSTORE PUSH1 0x24 PUSH1 0x0 REVERT JUMPDEST PUSH1 0x40 MLOAD SWAP1 PUSH2 0x122F DUP3 PUSH2 0x2EC JUMP JUMPDEST PUSH1 0xF DUP3 MSTORE PUSH15 0x39B2B1B932BA39A637B1B0BA34B7B7 PUSH1 0x89 SHL PUSH1 0x20 DUP4 ADD MSTORE JUMP JUMPDEST PUSH1 0x40 MLOAD SWAP1 PUSH2 0x125A DUP3 PUSH2 0x2EC JUMP JUMPDEST PUSH1 0x7 DUP3 MSTORE PUSH7 0x73656372657473 PUSH1 0xC8 SHL PUSH1 0x20 DUP4 ADD MSTORE JUMP JUMPDEST PUSH1 0x40 MLOAD SWAP1 PUSH2 0x127D DUP3 PUSH2 0x2EC JUMP JUMPDEST PUSH1 0x9 DUP3 MSTORE PUSH9 0x627974657341726773 PUSH1 0xB8 SHL PUSH1 0x20 DUP4 ADD MSTORE JUMP JUMPDEST PUSH2 0x129D PUSH2 0x14A6 JUMP JUMPDEST SWAP1 PUSH2 0x12AF PUSH2 0x12A9 PUSH2 0x1160 JUMP JUMPDEST DUP4 PUSH2 0x14F6 JUMP JUMPDEST PUSH2 0x12CC DUP2 MLOAD PUSH2 0x12BD DUP2 PUSH2 0x107D JUMP JUMPDEST PUSH2 0x12C6 DUP2 PUSH2 0x107D JUMP JUMPDEST DUP4 PUSH2 0x15B8 JUMP JUMPDEST PUSH2 0x12D7 PUSH2 0x12A9 PUSH2 0x1188 JUMP JUMPDEST PUSH2 0x12F1 PUSH1 0x40 DUP3 ADD MLOAD PUSH2 0x12E8 DUP2 PUSH2 0x11AC JUMP JUMPDEST PUSH2 0x12C6 DUP2 PUSH2 0x11AC JUMP JUMPDEST PUSH2 0x12FC PUSH2 0x12A9 PUSH2 0x11B6 JUMP JUMPDEST PUSH2 0x130A PUSH1 0x60 DUP3 ADD MLOAD DUP4 PUSH2 0x14F6 JUMP JUMPDEST PUSH1 0xA0 DUP2 ADD DUP1 MLOAD MLOAD PUSH2 0x140A JUMPI JUMPDEST POP PUSH1 0x80 DUP2 ADD SWAP1 DUP2 MLOAD MLOAD PUSH2 0x138A JUMPI JUMPDEST PUSH1 0xC0 SWAP2 POP ADD DUP1 MLOAD MLOAD PUSH2 0x1337 JUMPI JUMPDEST POP MLOAD MLOAD SWAP1 JUMP JUMPDEST SWAP2 PUSH2 0x1343 PUSH2 0x12A9 PUSH2 0x1270 JUMP JUMPDEST PUSH2 0x134C DUP3 PUSH2 0x168A JUMP JUMPDEST PUSH1 0x0 JUMPDEST DUP4 MLOAD DUP1 MLOAD DUP3 LT ISZERO PUSH2 0x1377 JUMPI SWAP1 PUSH2 0x1371 PUSH2 0x136A DUP3 PUSH1 0x1 SWAP5 PUSH2 0x11F8 JUMP JUMPDEST MLOAD DUP6 PUSH2 0x17B2 JUMP JUMPDEST ADD PUSH2 0x134F JUMP JUMPDEST POP POP SWAP2 POP PUSH2 0x1384 DUP2 PUSH2 0x1725 JUMP JUMPDEST CODESIZE PUSH2 0x1331 JUMP JUMPDEST PUSH1 0x20 DUP2 ADD DUP1 MLOAD PUSH2 0x1399 DUP2 PUSH2 0x107D JUMP JUMPDEST PUSH2 0x13A2 DUP2 PUSH2 0x107D JUMP JUMPDEST ISZERO PUSH2 0x13F8 JUMPI PUSH1 0xC0 SWAP3 PUSH2 0x13DB PUSH2 0x13F3 SWAP3 PUSH2 0x13C2 PUSH2 0x13BC PUSH2 0x1222 JUMP JUMPDEST DUP9 PUSH2 0x14F6 JUMP JUMPDEST MLOAD PUSH2 0x13CC DUP2 PUSH2 0x107D JUMP JUMPDEST PUSH2 0x13D5 DUP2 PUSH2 0x107D JUMP JUMPDEST DUP7 PUSH2 0x15B8 JUMP JUMPDEST PUSH2 0x13EC PUSH2 0x13E6 PUSH2 0x124D JUMP JUMPDEST DUP7 PUSH2 0x14F6 JUMP JUMPDEST MLOAD DUP5 PUSH2 0x17B2 JUMP JUMPDEST PUSH2 0x1324 JUMP JUMPDEST PUSH1 0x40 MLOAD PUSH4 0xA80D31F7 PUSH1 0xE0 SHL DUP2 MSTORE PUSH1 0x4 SWAP1 REVERT JUMPDEST SWAP3 PUSH2 0x141C PUSH2 0x1416 PUSH2 0x11D8 JUMP JUMPDEST DUP5 PUSH2 0x14F6 JUMP JUMPDEST PUSH2 0x1425 DUP4 PUSH2 0x168A JUMP JUMPDEST PUSH1 0x0 JUMPDEST DUP5 MLOAD DUP1 MLOAD DUP3 LT ISZERO PUSH2 0x1450 JUMPI SWAP1 PUSH2 0x144A PUSH2 0x1443 DUP3 PUSH1 0x1 SWAP5 PUSH2 0x11F8 JUMP JUMPDEST MLOAD DUP7 PUSH2 0x14F6 JUMP JUMPDEST ADD PUSH2 0x1428 JUMP JUMPDEST POP POP SWAP3 POP PUSH2 0x145D DUP3 PUSH2 0x1725 JUMP JUMPDEST CODESIZE PUSH2 0x1316 JUMP JUMPDEST DUP2 MLOAD ISZERO PUSH2 0x147A JUMPI PUSH1 0x0 DUP1 DUP3 MSTORE PUSH1 0x40 DUP3 ADD MSTORE PUSH1 0x60 ADD MSTORE JUMP JUMPDEST PUSH1 0x40 MLOAD PUSH4 0x22CE3EDD PUSH1 0xE0 SHL DUP2 MSTORE PUSH1 0x4 SWAP1 REVERT JUMPDEST PUSH1 0x40 MLOAD SWAP1 PUSH2 0x1499 DUP3 PUSH2 0x2EC JUMP JUMPDEST PUSH1 0x0 PUSH1 0x20 DUP4 PUSH1 0x60 DUP2 MSTORE ADD MSTORE JUMP JUMPDEST PUSH1 0x40 MLOAD PUSH2 0x14B2 DUP2 PUSH2 0x2EC JUMP JUMPDEST PUSH2 0x14BA PUSH2 0x148C JUMP JUMPDEST DUP1 DUP3 MSTORE PUSH1 0x20 DUP3 ADD PUSH1 0x0 DUP2 MSTORE PUSH2 0x14CD PUSH2 0x148C JUMP JUMPDEST POP PUSH2 0x100 PUSH1 0x20 DUP4 ADD MSTORE PUSH1 0x40 MLOAD DUP1 SWAP3 MSTORE PUSH1 0x0 DUP3 MSTORE PUSH2 0x120 DUP3 ADD SWAP2 DUP3 LT PUSH2 0x36E JUMPI PUSH1 0x0 SWAP2 PUSH1 0x40 MSTORE MSTORE SWAP1 JUMP JUMPDEST DUP2 MLOAD PUSH2 0x153A SWAP3 SWAP2 SWAP1 PUSH1 0x1 PUSH1 0x1 PUSH1 0x40 SHL SUB DUP2 AND SWAP1 PUSH1 0x17 DUP3 GT PUSH2 0x153D JUMPI PUSH2 0x1525 SWAP2 POP PUSH1 0x60 PUSH1 0xFF DUP5 MLOAD SWAP3 AND OR SWAP1 PUSH2 0x1EBF JUMP JUMPDEST POP JUMPDEST MLOAD SWAP1 PUSH2 0x1531 PUSH2 0x148C JUMP JUMPDEST POP DUP1 MLOAD SWAP2 PUSH2 0x20EF JUMP JUMPDEST POP JUMP JUMPDEST POP PUSH1 0xFF DUP2 GT PUSH2 0x1562 JUMPI PUSH2 0x155C SWAP1 PUSH2 0x1554 DUP4 MLOAD PUSH2 0x1B32 JUMP JUMPDEST POP DUP3 MLOAD PUSH2 0x207B JUMP JUMPDEST POP PUSH2 0x1527 JUMP JUMPDEST PUSH2 0xFFFF DUP2 GT PUSH2 0x1581 JUMPI PUSH2 0x155C SWAP1 PUSH2 0x1579 DUP4 MLOAD PUSH2 0x1ACD JUMP JUMPDEST POP DUP3 MLOAD PUSH2 0x200D JUMP JUMPDEST PUSH4 0xFFFFFFFF DUP2 GT PUSH2 0x15A2 JUMPI PUSH2 0x155C SWAP1 PUSH2 0x159A DUP4 MLOAD PUSH2 0x1A68 JUMP JUMPDEST POP DUP3 MLOAD PUSH2 0x1F9D JUMP JUMPDEST PUSH2 0x155C SWAP1 PUSH2 0x15B0 DUP4 MLOAD PUSH2 0x19F8 JUMP JUMPDEST POP DUP3 MLOAD PUSH2 0x1F2A JUMP JUMPDEST SWAP1 DUP2 MLOAD SWAP2 PUSH2 0x15C4 PUSH2 0x148C JUMP JUMPDEST POP DUP3 MLOAD MLOAD PUSH1 0x1 DUP2 ADD SWAP1 DUP2 DUP2 GT PUSH2 0x1659 JUMPI PUSH1 0x20 DUP6 ADD MLOAD DUP2 LT ISZERO PUSH2 0x161D JUMPI JUMPDEST PUSH1 0xC2 PUSH1 0x20 PUSH2 0x5C5 SWAP7 MLOAD SWAP3 DUP4 ADD ADD MSTORE8 DUP1 MLOAD DUP3 GT PUSH2 0x1615 JUMPI JUMPDEST POP POP PUSH1 0x40 MLOAD SWAP2 PUSH1 0x20 DUP4 ADD MSTORE PUSH1 0x20 DUP3 MSTORE PUSH2 0x1610 DUP3 PUSH2 0x2EC JUMP JUMPDEST PUSH2 0x17B2 JUMP JUMPDEST MSTORE CODESIZE DUP1 PUSH2 0x15F8 JUMP JUMPDEST DUP2 PUSH1 0x1 SHL SWAP5 DUP3 DUP7 DIV PUSH1 0x2 EQ DUP4 ISZERO OR ISZERO PUSH2 0x1659 JUMPI PUSH1 0x20 DUP2 PUSH2 0x164F PUSH2 0x5C5 SWAP9 PUSH2 0x1648 PUSH1 0xC2 SWAP6 MLOAD SWAP2 DUP5 PUSH2 0x1836 JUMP JUMPDEST POP DUP3 PUSH2 0x191D JUMP JUMPDEST POP SWAP7 POP POP POP PUSH2 0x15E1 JUMP JUMPDEST PUSH4 0x4E487B71 PUSH1 0xE0 SHL PUSH1 0x0 MSTORE PUSH1 0x11 PUSH1 0x4 MSTORE PUSH1 0x24 PUSH1 0x0 REVERT JUMPDEST SWAP1 PUSH1 0x20 DUP3 ADD DUP1 SWAP3 GT PUSH2 0x1659 JUMPI JUMP JUMPDEST SWAP2 SWAP1 DUP3 ADD DUP1 SWAP3 GT PUSH2 0x1659 JUMPI JUMP JUMPDEST DUP1 MLOAD SWAP1 PUSH2 0x1695 PUSH2 0x148C JUMP JUMPDEST POP DUP2 MLOAD MLOAD PUSH1 0x1 DUP2 ADD SWAP1 DUP2 DUP2 GT PUSH2 0x1659 JUMPI PUSH1 0x20 DUP5 ADD MLOAD DUP2 LT ISZERO PUSH2 0x16E3 JUMPI JUMPDEST PUSH1 0x9F PUSH1 0x20 DUP1 SWAP6 MLOAD SWAP3 DUP4 ADD ADD MSTORE8 DUP1 MLOAD DUP3 GT PUSH2 0x16DB JUMPI JUMPDEST POP POP ADD DUP1 MLOAD SWAP1 PUSH1 0x1 DUP3 ADD DUP1 SWAP3 GT PUSH2 0x1659 JUMPI MSTORE JUMP JUMPDEST MSTORE CODESIZE DUP1 PUSH2 0x16C7 JUMP JUMPDEST DUP2 PUSH1 0x1 SHL SWAP4 DUP3 DUP6 DIV PUSH1 0x2 EQ DUP4 ISZERO OR ISZERO PUSH2 0x1659 JUMPI PUSH1 0x20 DUP2 PUSH2 0x170C DUP3 SWAP8 PUSH2 0x1648 PUSH1 0x9F SWAP6 MLOAD SWAP2 DUP5 PUSH2 0x1836 JUMP JUMPDEST POP SWAP6 POP POP POP PUSH2 0x16B2 JUMP JUMPDEST PUSH1 0x1F NOT DUP2 ADD SWAP2 SWAP1 DUP3 GT PUSH2 0x1659 JUMPI JUMP JUMPDEST DUP1 MLOAD SWAP1 PUSH2 0x1730 PUSH2 0x148C JUMP JUMPDEST POP DUP2 MLOAD MLOAD PUSH1 0x1 DUP2 ADD SWAP1 DUP2 DUP2 GT PUSH2 0x1659 JUMPI PUSH1 0x20 DUP5 ADD MLOAD DUP2 LT ISZERO PUSH2 0x177F JUMPI JUMPDEST PUSH1 0xFF PUSH1 0x20 DUP1 SWAP6 MLOAD SWAP3 DUP4 ADD ADD MSTORE8 DUP1 MLOAD DUP3 GT PUSH2 0x1777 JUMPI JUMPDEST POP POP ADD DUP1 MLOAD PUSH1 0x0 NOT DUP2 ADD SWAP2 SWAP1 DUP3 GT PUSH2 0x1659 JUMPI MSTORE JUMP JUMPDEST MSTORE CODESIZE DUP1 PUSH2 0x1762 JUMP JUMPDEST DUP2 PUSH1 0x1 SHL SWAP4 DUP3 DUP6 DIV PUSH1 0x2 EQ DUP4 ISZERO OR ISZERO PUSH2 0x1659 JUMPI PUSH1 0x20 DUP2 PUSH2 0x17A8 DUP3 SWAP8 PUSH2 0x1648 PUSH1 0xFF SWAP6 MLOAD SWAP2 DUP5 PUSH2 0x1836 JUMP JUMPDEST POP SWAP6 POP POP POP PUSH2 0x174D JUMP JUMPDEST DUP2 MLOAD PUSH2 0x153A SWAP3 SWAP2 SWAP1 PUSH1 0x1 PUSH1 0x1 PUSH1 0x40 SHL SUB DUP2 AND SWAP1 PUSH1 0x17 DUP3 GT PUSH2 0x17E1 JUMPI PUSH2 0x1525 SWAP2 POP PUSH1 0x40 PUSH1 0xFF DUP5 MLOAD SWAP3 AND OR SWAP1 PUSH2 0x1EBF JUMP JUMPDEST POP PUSH1 0xFF DUP2 GT PUSH2 0x17F8 JUMPI PUSH2 0x155C SWAP1 PUSH2 0x1554 DUP4 MLOAD PUSH2 0x1CC6 JUMP JUMPDEST PUSH2 0xFFFF DUP2 GT PUSH2 0x180F JUMPI PUSH2 0x155C SWAP1 PUSH2 0x1579 DUP4 MLOAD PUSH2 0x1C61 JUMP JUMPDEST PUSH4 0xFFFFFFFF DUP2 GT PUSH2 0x1828 JUMPI PUSH2 0x155C SWAP1 PUSH2 0x159A DUP4 MLOAD PUSH2 0x1BFC JUMP JUMPDEST PUSH2 0x155C SWAP1 PUSH2 0x15B0 DUP4 MLOAD PUSH2 0x1B97 JUMP JUMPDEST SWAP1 PUSH2 0x183F PUSH2 0x148C JUMP JUMPDEST POP PUSH1 0x1F DUP2 AND DUP1 PUSH2 0x186E JUMPI JUMPDEST POP DUP1 PUSH1 0x20 DUP4 ADD MSTORE PUSH1 0x40 MLOAD SWAP1 DUP2 DUP4 MSTORE PUSH1 0x0 DUP3 MSTORE DUP2 ADD PUSH1 0x20 ADD SWAP1 DUP2 LT PUSH2 0x36E JUMPI PUSH1 0x40 MSTORE SWAP1 JUMP JUMPDEST PUSH1 0x20 SUB PUSH1 0x20 DUP2 GT PUSH2 0x1659 JUMPI DUP2 ADD DUP1 SWAP2 GT PUSH2 0x1659 JUMPI CODESIZE PUSH2 0x184A JUMP JUMPDEST SWAP1 PUSH1 0x1 PUSH1 0x1 PUSH1 0x40 SHL SUB DUP2 AND PUSH1 0x17 DUP2 GT PUSH2 0x18AB JUMPI POP PUSH1 0xFF PUSH2 0x153A SWAP3 MLOAD SWAP2 AND SWAP1 PUSH2 0x1EBF JUMP JUMPDEST SWAP1 POP PUSH1 0xFF DUP2 GT PUSH2 0x18CA JUMPI DUP2 PUSH2 0x18C3 PUSH2 0x153A SWAP4 MLOAD PUSH2 0x1E5A JUMP JUMPDEST POP MLOAD PUSH2 0x207B JUMP JUMPDEST PUSH2 0xFFFF DUP2 GT PUSH2 0x18E8 JUMPI DUP2 PUSH2 0x18E1 PUSH2 0x153A SWAP4 MLOAD PUSH2 0x1DF5 JUMP JUMPDEST POP MLOAD PUSH2 0x200D JUMP JUMPDEST PUSH4 0xFFFFFFFF DUP2 GT PUSH2 0x1908 JUMPI DUP2 PUSH2 0x1901 PUSH2 0x153A SWAP4 MLOAD PUSH2 0x1D90 JUMP JUMPDEST POP MLOAD PUSH2 0x1F9D JUMP JUMPDEST DUP2 PUSH2 0x1916 PUSH2 0x153A SWAP4 MLOAD PUSH2 0x1D2B JUMP JUMPDEST POP MLOAD PUSH2 0x1F2A JUMP JUMPDEST SWAP1 PUSH2 0x1926 PUSH2 0x148C JUMP JUMPDEST POP DUP1 MLOAD SWAP1 PUSH2 0x1932 PUSH2 0x148C JUMP JUMPDEST POP PUSH2 0x1940 DUP2 MLOAD DUP4 GT ISZERO PUSH2 0x20E8 JUMP JUMPDEST DUP3 MLOAD MLOAD SWAP2 PUSH2 0x194E DUP2 DUP5 PUSH2 0x167D JUMP JUMPDEST PUSH1 0x20 SWAP3 PUSH1 0x20 DUP7 ADD MLOAD DUP3 GT PUSH2 0x19CB JUMPI JUMPDEST PUSH1 0x20 SWAP2 DUP7 MLOAD DUP4 DUP2 MLOAD SWAP8 DUP3 ADD ADD SWAP7 DUP3 GT PUSH2 0x19C3 JUMPI JUMPDEST POP POP ADD SWAP2 JUMPDEST DUP1 DUP3 LT ISZERO PUSH2 0x199B JUMPI POP PUSH1 0x0 NOT SWAP1 PUSH1 0x20 SUB PUSH2 0x100 EXP ADD SWAP1 DUP2 NOT SWAP1 MLOAD AND SWAP1 DUP3 MLOAD AND OR SWAP1 MSTORE SWAP1 JUMP JUMPDEST SWAP1 SWAP2 SWAP3 PUSH2 0x19B7 PUSH2 0x19B1 PUSH2 0x19BD SWAP3 DUP7 MLOAD DUP2 MSTORE PUSH2 0x166F JUMP JUMPDEST SWAP5 PUSH2 0x166F JUMP JUMPDEST SWAP3 PUSH2 0x1716 JUMP JUMPDEST SWAP1 PUSH2 0x1976 JUMP JUMPDEST MSTORE CODESIZE DUP1 PUSH2 0x1971 JUMP JUMPDEST PUSH2 0x19DD PUSH2 0x19D7 DUP4 PUSH2 0x19E2 JUMP JUMPDEST DUP8 PUSH2 0x219B JUMP JUMPDEST PUSH2 0x195D JUMP JUMPDEST SWAP1 DUP2 PUSH1 0x1 SHL SWAP2 DUP1 DUP4 DIV PUSH1 0x2 EQ SWAP1 ISZERO OR ISZERO PUSH2 0x1659 JUMPI JUMP JUMPDEST PUSH2 0x1A00 PUSH2 0x148C JUMP JUMPDEST POP DUP1 MLOAD MLOAD PUSH1 0x1 DUP2 ADD SWAP1 DUP2 DUP2 GT PUSH2 0x1659 JUMPI PUSH1 0x20 DUP4 ADD MLOAD DUP2 LT ISZERO PUSH2 0x1A39 JUMPI JUMPDEST PUSH1 0x7B PUSH1 0x20 DUP5 MLOAD SWAP3 DUP4 ADD ADD MSTORE8 DUP1 MLOAD DUP3 GT PUSH2 0x1A35 JUMPI POP POP SWAP1 JUMP JUMPDEST MSTORE SWAP1 JUMP JUMPDEST DUP2 PUSH1 0x1 SHL DUP3 DUP2 DIV PUSH1 0x2 EQ DUP4 ISZERO OR ISZERO PUSH2 0x1659 JUMPI PUSH2 0x1A62 SWAP1 PUSH2 0x1A5B DUP6 MLOAD SWAP2 DUP7 PUSH2 0x1836 JUMP JUMPDEST POP DUP5 PUSH2 0x191D JUMP JUMPDEST POP PUSH2 0x1A1D JUMP JUMPDEST PUSH2 0x1A70 PUSH2 0x148C JUMP JUMPDEST POP DUP1 MLOAD MLOAD PUSH1 0x1 DUP2 ADD SWAP1 DUP2 DUP2 GT PUSH2 0x1659 JUMPI PUSH1 0x20 DUP4 ADD MLOAD DUP2 LT ISZERO PUSH2 0x1AA5 JUMPI JUMPDEST PUSH1 0x7A PUSH1 0x20 DUP5 MLOAD SWAP3 DUP4 ADD ADD MSTORE8 DUP1 MLOAD DUP3 GT PUSH2 0x1A35 JUMPI POP POP SWAP1 JUMP JUMPDEST DUP2 PUSH1 0x1 SHL DUP3 DUP2 DIV PUSH1 0x2 EQ DUP4 ISZERO OR ISZERO PUSH2 0x1659 JUMPI PUSH2 0x1AC7 SWAP1 PUSH2 0x1A5B DUP6 MLOAD SWAP2 DUP7 PUSH2 0x1836 JUMP JUMPDEST POP PUSH2 0x1A8D JUMP JUMPDEST PUSH2 0x1AD5 PUSH2 0x148C JUMP JUMPDEST POP DUP1 MLOAD MLOAD PUSH1 0x1 DUP2 ADD SWAP1 DUP2 DUP2 GT PUSH2 0x1659 JUMPI PUSH1 0x20 DUP4 ADD MLOAD DUP2 LT ISZERO PUSH2 0x1B0A JUMPI JUMPDEST PUSH1 0x79 PUSH1 0x20 DUP5 MLOAD SWAP3 DUP4 ADD ADD MSTORE8 DUP1 MLOAD DUP3 GT PUSH2 0x1A35 JUMPI POP POP SWAP1 JUMP JUMPDEST DUP2 PUSH1 0x1 SHL DUP3 DUP2 DIV PUSH1 0x2 EQ DUP4 ISZERO OR ISZERO PUSH2 0x1659 JUMPI PUSH2 0x1B2C SWAP1 PUSH2 0x1A5B DUP6 MLOAD SWAP2 DUP7 PUSH2 0x1836 JUMP JUMPDEST POP PUSH2 0x1AF2 JUMP JUMPDEST PUSH2 0x1B3A PUSH2 0x148C JUMP JUMPDEST POP DUP1 MLOAD MLOAD PUSH1 0x1 DUP2 ADD SWAP1 DUP2 DUP2 GT PUSH2 0x1659 JUMPI PUSH1 0x20 DUP4 ADD MLOAD DUP2 LT ISZERO PUSH2 0x1B6F JUMPI JUMPDEST PUSH1 0x78 PUSH1 0x20 DUP5 MLOAD SWAP3 DUP4 ADD ADD MSTORE8 DUP1 MLOAD DUP3 GT PUSH2 0x1A35 JUMPI POP POP SWAP1 JUMP JUMPDEST DUP2 PUSH1 0x1 SHL DUP3 DUP2 DIV PUSH1 0x2 EQ DUP4 ISZERO OR ISZERO PUSH2 0x1659 JUMPI PUSH2 0x1B91 SWAP1 PUSH2 0x1A5B DUP6 MLOAD SWAP2 DUP7 PUSH2 0x1836 JUMP JUMPDEST POP PUSH2 0x1B57 JUMP JUMPDEST PUSH2 0x1B9F PUSH2 0x148C JUMP JUMPDEST POP DUP1 MLOAD MLOAD PUSH1 0x1 DUP2 ADD SWAP1 DUP2 DUP2 GT PUSH2 0x1659 JUMPI PUSH1 0x20 DUP4 ADD MLOAD DUP2 LT ISZERO PUSH2 0x1BD4 JUMPI JUMPDEST PUSH1 0x5B PUSH1 0x20 DUP5 MLOAD SWAP3 DUP4 ADD ADD MSTORE8 DUP1 MLOAD DUP3 GT PUSH2 0x1A35 JUMPI POP POP SWAP1 JUMP JUMPDEST DUP2 PUSH1 0x1 SHL DUP3 DUP2 DIV PUSH1 0x2 EQ DUP4 ISZERO OR ISZERO PUSH2 0x1659 JUMPI PUSH2 0x1BF6 SWAP1 PUSH2 0x1A5B DUP6 MLOAD SWAP2 DUP7 PUSH2 0x1836 JUMP JUMPDEST POP PUSH2 0x1BBC JUMP JUMPDEST PUSH2 0x1C04 PUSH2 0x148C JUMP JUMPDEST POP DUP1 MLOAD MLOAD PUSH1 0x1 DUP2 ADD SWAP1 DUP2 DUP2 GT PUSH2 0x1659 JUMPI PUSH1 0x20 DUP4 ADD MLOAD DUP2 LT ISZERO PUSH2 0x1C39 JUMPI JUMPDEST PUSH1 0x5A PUSH1 0x20 DUP5 MLOAD SWAP3 DUP4 ADD ADD MSTORE8 DUP1 MLOAD DUP3 GT PUSH2 0x1A35 JUMPI POP POP SWAP1 JUMP JUMPDEST DUP2 PUSH1 0x1 SHL DUP3 DUP2 DIV PUSH1 0x2 EQ DUP4 ISZERO OR ISZERO PUSH2 0x1659 JUMPI PUSH2 0x1C5B SWAP1 PUSH2 0x1A5B DUP6 MLOAD SWAP2 DUP7 PUSH2 0x1836 JUMP JUMPDEST POP PUSH2 0x1C21 JUMP JUMPDEST PUSH2 0x1C69 PUSH2 0x148C JUMP JUMPDEST POP DUP1 MLOAD MLOAD PUSH1 0x1 DUP2 ADD SWAP1 DUP2 DUP2 GT PUSH2 0x1659 JUMPI PUSH1 0x20 DUP4 ADD MLOAD DUP2 LT ISZERO PUSH2 0x1C9E JUMPI JUMPDEST PUSH1 0x59 PUSH1 0x20 DUP5 MLOAD SWAP3 DUP4 ADD ADD MSTORE8 DUP1 MLOAD DUP3 GT PUSH2 0x1A35 JUMPI POP POP SWAP1 JUMP JUMPDEST DUP2 PUSH1 0x1 SHL DUP3 DUP2 DIV PUSH1 0x2 EQ DUP4 ISZERO OR ISZERO PUSH2 0x1659 JUMPI PUSH2 0x1CC0 SWAP1 PUSH2 0x1A5B DUP6 MLOAD SWAP2 DUP7 PUSH2 0x1836 JUMP JUMPDEST POP PUSH2 0x1C86 JUMP JUMPDEST PUSH2 0x1CCE PUSH2 0x148C JUMP JUMPDEST POP DUP1 MLOAD MLOAD PUSH1 0x1 DUP2 ADD SWAP1 DUP2 DUP2 GT PUSH2 0x1659 JUMPI PUSH1 0x20 DUP4 ADD MLOAD DUP2 LT ISZERO PUSH2 0x1D03 JUMPI JUMPDEST PUSH1 0x58 PUSH1 0x20 DUP5 MLOAD SWAP3 DUP4 ADD ADD MSTORE8 DUP1 MLOAD DUP3 GT PUSH2 0x1A35 JUMPI POP POP SWAP1 JUMP JUMPDEST DUP2 PUSH1 0x1 SHL DUP3 DUP2 DIV PUSH1 0x2 EQ DUP4 ISZERO OR ISZERO PUSH2 0x1659 JUMPI PUSH2 0x1D25 SWAP1 PUSH2 0x1A5B DUP6 MLOAD SWAP2 DUP7 PUSH2 0x1836 JUMP JUMPDEST POP PUSH2 0x1CEB JUMP JUMPDEST PUSH2 0x1D33 PUSH2 0x148C JUMP JUMPDEST POP DUP1 MLOAD MLOAD PUSH1 0x1 DUP2 ADD SWAP1 DUP2 DUP2 GT PUSH2 0x1659 JUMPI PUSH1 0x20 DUP4 ADD MLOAD DUP2 LT ISZERO PUSH2 0x1D68 JUMPI JUMPDEST PUSH1 0x1B PUSH1 0x20 DUP5 MLOAD SWAP3 DUP4 ADD ADD MSTORE8 DUP1 MLOAD DUP3 GT PUSH2 0x1A35 JUMPI POP POP SWAP1 JUMP JUMPDEST DUP2 PUSH1 0x1 SHL DUP3 DUP2 DIV PUSH1 0x2 EQ DUP4 ISZERO OR ISZERO PUSH2 0x1659 JUMPI PUSH2 0x1D8A SWAP1 PUSH2 0x1A5B DUP6 MLOAD SWAP2 DUP7 PUSH2 0x1836 JUMP JUMPDEST POP PUSH2 0x1D50 JUMP JUMPDEST PUSH2 0x1D98 PUSH2 0x148C JUMP JUMPDEST POP DUP1 MLOAD MLOAD PUSH1 0x1 DUP2 ADD SWAP1 DUP2 DUP2 GT PUSH2 0x1659 JUMPI PUSH1 0x20 DUP4 ADD MLOAD DUP2 LT ISZERO PUSH2 0x1DCD JUMPI JUMPDEST PUSH1 0x1A PUSH1 0x20 DUP5 MLOAD SWAP3 DUP4 ADD ADD MSTORE8 DUP1 MLOAD DUP3 GT PUSH2 0x1A35 JUMPI POP POP SWAP1 JUMP JUMPDEST DUP2 PUSH1 0x1 SHL DUP3 DUP2 DIV PUSH1 0x2 EQ DUP4 ISZERO OR ISZERO PUSH2 0x1659 JUMPI PUSH2 0x1DEF SWAP1 PUSH2 0x1A5B DUP6 MLOAD SWAP2 DUP7 PUSH2 0x1836 JUMP JUMPDEST POP PUSH2 0x1DB5 JUMP JUMPDEST PUSH2 0x1DFD PUSH2 0x148C JUMP JUMPDEST POP DUP1 MLOAD MLOAD PUSH1 0x1 DUP2 ADD SWAP1 DUP2 DUP2 GT PUSH2 0x1659 JUMPI PUSH1 0x20 DUP4 ADD MLOAD DUP2 LT ISZERO PUSH2 0x1E32 JUMPI JUMPDEST PUSH1 0x19 PUSH1 0x20 DUP5 MLOAD SWAP3 DUP4 ADD ADD MSTORE8 DUP1 MLOAD DUP3 GT PUSH2 0x1A35 JUMPI POP POP SWAP1 JUMP JUMPDEST DUP2 PUSH1 0x1 SHL DUP3 DUP2 DIV PUSH1 0x2 EQ DUP4 ISZERO OR ISZERO PUSH2 0x1659 JUMPI PUSH2 0x1E54 SWAP1 PUSH2 0x1A5B DUP6 MLOAD SWAP2 DUP7 PUSH2 0x1836 JUMP JUMPDEST POP PUSH2 0x1E1A JUMP JUMPDEST PUSH2 0x1E62 PUSH2 0x148C JUMP JUMPDEST POP DUP1 MLOAD MLOAD PUSH1 0x1 DUP2 ADD SWAP1 DUP2 DUP2 GT PUSH2 0x1659 JUMPI PUSH1 0x20 DUP4 ADD MLOAD DUP2 LT ISZERO PUSH2 0x1E97 JUMPI JUMPDEST PUSH1 0x18 PUSH1 0x20 DUP5 MLOAD SWAP3 DUP4 ADD ADD MSTORE8 DUP1 MLOAD DUP3 GT PUSH2 0x1A35 JUMPI POP POP SWAP1 JUMP JUMPDEST DUP2 PUSH1 0x1 SHL DUP3 DUP2 DIV PUSH1 0x2 EQ DUP4 ISZERO OR ISZERO PUSH2 0x1659 JUMPI PUSH2 0x1EB9 SWAP1 PUSH2 0x1A5B DUP6 MLOAD SWAP2 DUP7 PUSH2 0x1836 JUMP JUMPDEST POP PUSH2 0x1E7F JUMP JUMPDEST SWAP1 PUSH2 0x1EC8 PUSH2 0x148C JUMP JUMPDEST POP DUP2 MLOAD MLOAD PUSH1 0x1 DUP2 ADD SWAP2 DUP3 DUP3 GT PUSH2 0x1659 JUMPI PUSH1 0x20 DUP5 ADD MLOAD DUP3 LT ISZERO PUSH2 0x1EFB JUMPI JUMPDEST PUSH1 0x20 DUP5 MLOAD SWAP3 DUP4 ADD ADD MSTORE8 DUP1 MLOAD DUP3 GT PUSH2 0x1A35 JUMPI POP POP SWAP1 JUMP JUMPDEST DUP3 PUSH1 0x1 SHL DUP4 DUP2 DIV PUSH1 0x2 EQ DUP5 ISZERO OR ISZERO PUSH2 0x1659 JUMPI PUSH2 0x1F24 SWAP1 PUSH2 0x1F1D DUP7 MLOAD SWAP2 DUP8 PUSH2 0x1836 JUMP JUMPDEST POP DUP6 PUSH2 0x191D JUMP JUMPDEST POP PUSH2 0x1EE5 JUMP JUMPDEST SWAP1 PUSH2 0x1F33 PUSH2 0x148C JUMP JUMPDEST POP DUP2 MLOAD MLOAD DUP1 PUSH1 0x8 ADD SWAP2 DUP3 PUSH1 0x8 GT PUSH2 0x1659 JUMPI PUSH1 0x20 DUP5 ADD MLOAD DUP4 GT PUSH2 0x1F75 JUMPI JUMPDEST PUSH1 0x8 DUP5 MLOAD SWAP3 DUP4 ADD ADD SWAP1 PUSH1 0x1 PUSH1 0x1 PUSH1 0x40 SHL SUB NOT DUP3 MLOAD AND OR SWAP1 MSTORE DUP1 MLOAD DUP3 GT PUSH2 0x1A35 JUMPI POP POP SWAP1 JUMP JUMPDEST DUP3 PUSH1 0x1 SHL DUP4 DUP2 DIV PUSH1 0x2 EQ DUP5 ISZERO OR ISZERO PUSH2 0x1659 JUMPI PUSH2 0x1F97 SWAP1 PUSH2 0x1F1D DUP7 MLOAD SWAP2 DUP8 PUSH2 0x1836 JUMP JUMPDEST POP PUSH2 0x1F50 JUMP JUMPDEST SWAP1 PUSH2 0x1FA6 PUSH2 0x148C JUMP JUMPDEST POP DUP2 MLOAD MLOAD DUP1 PUSH1 0x4 ADD SWAP2 DUP3 PUSH1 0x4 GT PUSH2 0x1659 JUMPI PUSH1 0x20 DUP5 ADD MLOAD DUP4 GT PUSH2 0x1FE5 JUMPI JUMPDEST PUSH1 0x4 DUP5 MLOAD SWAP3 DUP4 ADD ADD SWAP1 PUSH4 0xFFFFFFFF NOT DUP3 MLOAD AND OR SWAP1 MSTORE DUP1 MLOAD DUP3 GT PUSH2 0x1A35 JUMPI POP POP SWAP1 JUMP JUMPDEST DUP3 PUSH1 0x1 SHL DUP4 DUP2 DIV PUSH1 0x2 EQ DUP5 ISZERO OR ISZERO PUSH2 0x1659 JUMPI PUSH2 0x2007 SWAP1 PUSH2 0x1F1D DUP7 MLOAD SWAP2 DUP8 PUSH2 0x1836 JUMP JUMPDEST POP PUSH2 0x1FC3 JUMP JUMPDEST SWAP1 PUSH2 0x2016 PUSH2 0x148C JUMP JUMPDEST POP DUP2 MLOAD MLOAD DUP1 PUSH1 0x2 ADD SWAP2 DUP3 PUSH1 0x2 GT PUSH2 0x1659 JUMPI PUSH1 0x20 DUP5 ADD MLOAD DUP4 GT PUSH2 0x2053 JUMPI JUMPDEST PUSH1 0x2 DUP5 MLOAD SWAP3 DUP4 ADD ADD SWAP1 PUSH2 0xFFFF NOT DUP3 MLOAD AND OR SWAP1 MSTORE DUP1 MLOAD DUP3 GT PUSH2 0x1A35 JUMPI POP POP SWAP1 JUMP JUMPDEST DUP3 PUSH1 0x1 SHL DUP4 DUP2 DIV PUSH1 0x2 EQ DUP5 ISZERO OR ISZERO PUSH2 0x1659 JUMPI PUSH2 0x2075 SWAP1 PUSH2 0x1F1D DUP7 MLOAD SWAP2 DUP8 PUSH2 0x1836 JUMP JUMPDEST POP PUSH2 0x2033 JUMP JUMPDEST SWAP1 PUSH2 0x2084 PUSH2 0x148C JUMP JUMPDEST POP DUP2 MLOAD MLOAD DUP1 PUSH1 0x1 ADD SWAP2 DUP3 PUSH1 0x1 GT PUSH2 0x1659 JUMPI PUSH1 0x20 DUP5 ADD MLOAD DUP4 GT PUSH2 0x20C0 JUMPI JUMPDEST PUSH1 0x1 DUP5 MLOAD SWAP3 DUP4 ADD ADD SWAP1 PUSH1 0xFF NOT DUP3 MLOAD AND OR SWAP1 MSTORE DUP1 MLOAD DUP3 GT PUSH2 0x1A35 JUMPI POP POP SWAP1 JUMP JUMPDEST DUP3 PUSH1 0x1 SHL DUP4 DUP2 DIV PUSH1 0x2 EQ DUP5 ISZERO OR ISZERO PUSH2 0x1659 JUMPI PUSH2 0x20E2 SWAP1 PUSH2 0x1F1D DUP7 MLOAD SWAP2 DUP8 PUSH2 0x1836 JUMP JUMPDEST POP PUSH2 0x20A1 JUMP JUMPDEST ISZERO PUSH2 0x36E JUMPI JUMP JUMPDEST SWAP2 SWAP1 PUSH2 0x20F9 PUSH2 0x148C JUMP JUMPDEST POP PUSH2 0x2107 DUP2 MLOAD DUP4 GT ISZERO PUSH2 0x20E8 JUMP JUMPDEST DUP3 MLOAD MLOAD SWAP2 PUSH1 0x20 PUSH2 0x2117 DUP3 DUP6 PUSH2 0x167D JUMP JUMPDEST SWAP3 DUP2 SWAP4 DUP3 DUP8 ADD MLOAD DUP2 GT PUSH2 0x2184 JUMPI JUMPDEST DUP7 MLOAD DUP4 DUP2 MLOAD SWAP8 DUP3 ADD ADD SWAP7 DUP3 GT PUSH2 0x217C JUMPI JUMPDEST POP POP ADD SWAP2 JUMPDEST DUP1 DUP3 LT ISZERO PUSH2 0x2160 JUMPI POP PUSH1 0x0 NOT SWAP1 PUSH1 0x20 SUB PUSH2 0x100 EXP ADD SWAP1 DUP2 NOT SWAP1 MLOAD AND SWAP1 DUP3 MLOAD AND OR SWAP1 MSTORE SWAP1 JUMP JUMPDEST SWAP1 SWAP2 SWAP3 PUSH2 0x19B7 PUSH2 0x19B1 PUSH2 0x2176 SWAP3 DUP7 MLOAD DUP2 MSTORE PUSH2 0x166F JUMP JUMPDEST SWAP1 PUSH2 0x213B JUMP JUMPDEST MSTORE CODESIZE DUP1 PUSH2 0x2136 JUMP JUMPDEST PUSH2 0x2196 PUSH2 0x2190 DUP3 PUSH2 0x19E2 JUMP JUMPDEST DUP9 PUSH2 0x219B JUMP JUMPDEST PUSH2 0x2125 JUMP JUMPDEST SWAP1 PUSH2 0x153A SWAP2 PUSH2 0x21AC DUP2 MLOAD SWAP3 DUP3 PUSH2 0x1836 JUMP JUMPDEST POP PUSH2 0x191D JUMP INVALID 0xC2 JUMPI GAS 0xE SWAP15 MSIZE EXTCODECOPY STOP 0xF9 MSIZE 0xF8 0xC9 0x2F SLT 0xDB 0x28 PUSH10 0xC3395A3B0502D05E2516 PREVRANDAO PUSH16 0x71F85B8A35ACFBC15FF81A39AE7D344F 0xD7 MULMOD CALLCODE DUP15 DUP7 STOP 0xB4 0xAA DUP13 PUSH6 0xC6B64BFE7FE3 PUSH12 0xD19BA2646970667358221220 0x2C 0xA7 SWAP12 0xC4 DUP14 0xBC POP 0xE9 PUSH21 0xD0B8C8C730C03E2C1DD84EDEE7F2D51F26160BAE2D EXP SWAP11 PUSH5 0x736F6C6343 STOP ADDMOD XOR STOP CALLER "},"methodIdentifiers":{"acceptOwnership()":"79ba5097","handleOracleFulfillment(bytes32,bytes,bytes)":"0ca76175","owner()":"8da5cb5b","result()":"65372147","s_lastError()":"4b0795a8","s_lastRequestId()":"b1e21749","s_lastResponse()":"3944ea3a","sendRequest(string[],bytes[],bytes,uint8,uint64)":"e1da6c89","sendRequestCBOR(bytes,uint64,uint32,bytes32)":"9681096f","transferOwnership(address)":"f2fde38b"}}}}}