{"contracts/AItool.sol":{"AItool":{"abi":[{"inputs":[],"stateMutability":"nonpayable","type":"constructor"},{"anonymous":false,"inputs":[{"indexed":false,"internalType":"string","name":"name","type":"string"},{"indexed":false,"internalType":"address","name":"user","type":"address"},{"indexed":false,"internalType":"uint256","name":"rentalDuration","type":"uint256"}],"name":"AIToolRented","type":"event"},{"anonymous":false,"inputs":[{"indexed":false,"internalType":"string","name":"name","type":"string"},{"indexed":false,"internalType":"address","name":"user","type":"address"},{"indexed":false,"internalType":"uint256","name":"amount","type":"uint256"}],"name":"RentalFeeDeducted","type":"event"},{"inputs":[{"internalType":"uint256","name":"","type":"uint256"}],"name":"aiTools","outputs":[{"internalType":"string","name":"name","type":"string"},{"internalType":"string","name":"symbol","type":"string"},{"internalType":"string","name":"api","type":"string"},{"internalType":"address","name":"developer","type":"address"},{"internalType":"uint256","name":"hourlyRent","type":"uint256"},{"internalType":"uint256","name":"dailyRent","type":"uint256"},{"internalType":"uint256","name":"weeklyRent","type":"uint256"},{"internalType":"uint256","name":"monthlyRent","type":"uint256"}],"stateMutability":"view","type":"function"},{"inputs":[],"name":"nextID","outputs":[{"internalType":"uint256","name":"","type":"uint256"}],"stateMutability":"view","type":"function"},{"inputs":[],"name":"owner","outputs":[{"internalType":"address","name":"","type":"address"}],"stateMutability":"view","type":"function"},{"inputs":[{"internalType":"string","name":"_name","type":"string"},{"internalType":"string","name":"_symbol","type":"string"},{"internalType":"string","name":"_api","type":"string"},{"internalType":"uint256","name":"_hourlyRent","type":"uint256"},{"internalType":"uint256","name":"_dailyRent","type":"uint256"},{"internalType":"uint256","name":"_weeklyRent","type":"uint256"},{"internalType":"uint256","name":"_monthlyRent","type":"uint256"}],"name":"registerAITool","outputs":[],"stateMutability":"nonpayable","type":"function"},{"inputs":[{"internalType":"uint256","name":"_id","type":"uint256"},{"internalType":"uint256","name":"_duration","type":"uint256"}],"name":"rentAITool","outputs":[],"stateMutability":"payable","type":"function"}],"evm":{"bytecode":{"linkReferences":{},"object":"6080806040523461002c5760018055600280546001600160a01b03191633179055610da890816100328239f35b600080fdfe608060408181526004918236101561001657600080fd5b600092833560e01c9182631e96917d1461097657508163392ab809146104695781634e83ac0214610147578163744ac99d146100875750638da5cb5b1461005c57600080fd5b3461008357816003193601126100835760025490516001600160a01b039091168152602090f35b5080fd5b905034610143576020366003190112610143578161010a93823581528060205220916100b283610a60565b926100bf60018201610a60565b916100cc60028301610a60565b9061012560018060a01b036003850154169584015491600585015493610118600760068801549701549783519b8c9b8c6101008091528d0190610b28565b908b820360208d0152610b28565b91898303908a0152610b28565b946060870152608086015260a085015260c084015260e08301520390f35b8280fd5b838380600319360112610083578235906024359060019261016b6001548210610b4d565b808552602085815282862060030154909190610191906001600160a01b03161515610b4d565b808652858252600883872001338752825260ff838720541661042857610e10840361038e57808652858252868387200154965b87341061035457508086528582526008838720013387528252858080808681209a60ff199b60018d82541617905585825281875260098883200133835287524288832055858252818752600a888320013383528752888883205581811561034b575b3090f11561034157855284815281852082519460608652869782549261024b84610a26565b938460608a01526080926001821691826000146102f95750506001146102a1575b3385890152858801879052887f26a16ddc28892c09fef75374d820cd8e706de4e1594902960d9ece6a99371ac1898c038aa180f35b885283882093985087935b8385106102e65750505050830160800194817f26a16ddc28892c09fef75374d820cd8e706de4e1594902960d9ece6a99371ac1858961026c565b80548886018301529389019382016102ac565b1660808a81019190915294151560051b890190940199508593507f26a16ddc28892c09fef75374d820cd8e706de4e1594902960d9ece6a99371ac192508791508a905061026c565b82513d87823e3d90fd5b506108fc610226565b835162461bcd60e51b81529081018390526014602482015273125b9cdd59999a58da595b9d081c185e5b595b9d60621b6044820152606490fd5b6201518084036103ab5780865285825260058387200154966101c4565b62093a8084036103c85780865285825260068387200154966101c4565b62278d0084036103e55780865285825260078387200154966101c4565b825162461bcd60e51b8152808801839052601760248201527f496e76616c69642072656e74616c206475726174696f6e0000000000000000006044820152606490fd5b606487838086519262461bcd60e51b845283015260248201527f5573657220616c72656164792072656e746564207468697320414920746f6f6c6044820152fd5b905082346109735760e03660031901126109735767ffffffffffffffff9282358481116101435761049d90369085016109ca565b9060243585811161096f576104b590369086016109ca565b60443586811161096b576104cc90369087016109ca565b956104d684610c16565b610928576104e382610c9d565b6108db576104f087610d0a565b6108985760019384549182875260209387855285882083518381116107cd578061051a8354610a26565b95601f9687811161084a575b5088908783116001146107eb578c926107e0575b5050600019600383901b1c191690891b1790555b8388528785528686892001908051908382116107cd5781906105708454610a26565b86811161077f575b508790868311600114610720578b92610715575b5050600019600383901b1c191690881b1790555b828752868452600285882001918951918211610702576105c08354610a26565b8181116106c3575b508798998896979850859183116001146106625786919083610657575b5050600019600383901b1c191690871b1790555b82525282206003810180546001600160a01b0319163317905560643584820155608435600582015560a435600682015560c43560079091015580546000198114610644578101905580f35b634e487b7160e01b835260118452602483fd5b015190508a806105e5565b8387528587208993929091601f198416895b8181106106a957508411610690575b505050811b0190556105f9565b015160001960f88460031b161c191690558a8080610683565b8383015185558d9a508c9690940193928901928901610674565b8389528589208280850160051c8201928886106106f9575b0160051c01905b8181106106ef57506105c8565b89815588016106e2565b925081926106db565b634e487b7160e01b885260418952602488fd5b015190508c8061058c565b848c52888c208b94509190601f1984168d5b8b8282106107695750508411610750575b505050811b0190556105a0565b015160001960f88460031b161c191690558c8080610743565b8385015186558e97909501949384019301610732565b909150838b52878b208680850160051c8201928a86106107c4575b918c91869594930160051c01915b8281106107b6575050610578565b8d81558594508c91016107a8565b9250819261079a565b634e487b7160e01b8a5260418b5260248afd5b015190508d8061053a565b848d52898d208c94509190601f1984168e5b8c828210610834575050841161081b575b505050811b01905561054e565b015160001960f88460031b161c191690558d808061080e565b8385015186558f979095019493840193016107fd565b909150838c52888c208780850160051c8201928b861061088f575b918d91869594930160051c01915b828110610881575050610526565b8e81558594508d9101610873565b92508192610865565b825162461bcd60e51b8152602081880152601e60248201527f414920746f6f6c2041504920616c7265616479207265676973746572656400006044820152606490fd5b825162461bcd60e51b8152602081880152602160248201527f414920746f6f6c2073796d626f6c20616c7265616479207265676973746572656044820152601960fa1b6064820152608490fd5b825162461bcd60e51b8152602081880152601f60248201527f414920746f6f6c206e616d6520616c72656164792072656769737465726564006044820152606490fd5b8480fd5b8380fd5b80fd5b8490346100835781600319360112610083576020906001548152f35b90601f8019910116810190811067ffffffffffffffff8211176109b457604052565b634e487b7160e01b600052604160045260246000fd5b81601f82011215610a215780359067ffffffffffffffff82116109b457604051926109ff601f8401601f191660200185610992565b82845260208383010111610a2157816000926020809301838601378301015290565b600080fd5b90600182811c92168015610a56575b6020831014610a4057565b634e487b7160e01b600052602260045260246000fd5b91607f1691610a35565b90604051918260008254610a7381610a26565b90818452602094600191600181169081600014610ae35750600114610aa4575b505050610aa292500383610992565b565b600090815285812095935091905b818310610acb575050610aa29350820101388080610a93565b85548884018501529485019487945091830191610ab2565b92505050610aa294925060ff191682840152151560051b820101388080610a93565b60005b838110610b185750506000910152565b8181015183820152602001610b08565b90602091610b4181518092818552858086019101610b05565b601f01601f1916010190565b15610b5457565b60405162461bcd60e51b81526020600482015260166024820152751052481d1bdbdb081b9bdd081c9959da5cdd195c995960521b6044820152606490fd5b600092918154610ba181610a26565b92600191808316908115610bfb5750600114610bbe575b50505050565b9091929394506000526020906020600020906000915b858310610bea5750505050019038808080610bb8565b805485840152918301918101610bd4565b60ff1916845250505081151590910201915038808080610bb8565b600180549091825b828110610c2e5750505050600090565b6000818152602081815260408092208251610c5e81610c508582018095610b92565b03601f198101835282610992565b5190209151610c8782820192828751610c7a8187858c01610b05565b8101038084520182610992565b51902014610c96578301610c1e565b9250505090565b6001908154915b828110610cb357505050600090565b6000818152602081815260016040809320018251610cd881610c508582018095610b92565b5190209151610cf482820192828751610c7a8187858c01610b05565b51902014610d0457600101610ca4565b91505090565b600180549091825b828110610d225750505050600090565b6000818152602081815260026040809320018251610d4781610c508582018095610b92565b5190209151610d6382820192828751610c7a8187858c01610b05565b51902014610c96578301610d1256fea2646970667358221220f32feb29369f2597587c64ed755d88a2eab8b7d841f815d1a8d9d9a112bc8e8d64736f6c63430008180033","opcodes":"PUSH1 0x80 DUP1 PUSH1 0x40 MSTORE CALLVALUE PUSH2 0x2C JUMPI PUSH1 0x1 DUP1 SSTORE PUSH1 0x2 DUP1 SLOAD PUSH1 0x1 PUSH1 0x1 PUSH1 0xA0 SHL SUB NOT AND CALLER OR SWAP1 SSTORE PUSH2 0xDA8 SWAP1 DUP2 PUSH2 0x32 DUP3 CODECOPY RETURN JUMPDEST PUSH1 0x0 DUP1 REVERT INVALID PUSH1 0x80 PUSH1 0x40 DUP2 DUP2 MSTORE PUSH1 0x4 SWAP2 DUP3 CALLDATASIZE LT ISZERO PUSH2 0x16 JUMPI PUSH1 0x0 DUP1 REVERT JUMPDEST PUSH1 0x0 SWAP3 DUP4 CALLDATALOAD PUSH1 0xE0 SHR SWAP2 DUP3 PUSH4 0x1E96917D EQ PUSH2 0x976 JUMPI POP DUP2 PUSH4 0x392AB809 EQ PUSH2 0x469 JUMPI DUP2 PUSH4 0x4E83AC02 EQ PUSH2 0x147 JUMPI DUP2 PUSH4 0x744AC99D EQ PUSH2 0x87 JUMPI POP PUSH4 0x8DA5CB5B EQ PUSH2 0x5C JUMPI PUSH1 0x0 DUP1 REVERT JUMPDEST CALLVALUE PUSH2 0x83 JUMPI DUP2 PUSH1 0x3 NOT CALLDATASIZE ADD SLT PUSH2 0x83 JUMPI PUSH1 0x2 SLOAD SWAP1 MLOAD PUSH1 0x1 PUSH1 0x1 PUSH1 0xA0 SHL SUB SWAP1 SWAP2 AND DUP2 MSTORE PUSH1 0x20 SWAP1 RETURN JUMPDEST POP DUP1 REVERT JUMPDEST SWAP1 POP CALLVALUE PUSH2 0x143 JUMPI PUSH1 0x20 CALLDATASIZE PUSH1 0x3 NOT ADD SLT PUSH2 0x143 JUMPI DUP2 PUSH2 0x10A SWAP4 DUP3 CALLDATALOAD DUP2 MSTORE DUP1 PUSH1 0x20 MSTORE KECCAK256 SWAP2 PUSH2 0xB2 DUP4 PUSH2 0xA60 JUMP JUMPDEST SWAP3 PUSH2 0xBF PUSH1 0x1 DUP3 ADD PUSH2 0xA60 JUMP JUMPDEST SWAP2 PUSH2 0xCC PUSH1 0x2 DUP4 ADD PUSH2 0xA60 JUMP JUMPDEST SWAP1 PUSH2 0x125 PUSH1 0x1 DUP1 PUSH1 0xA0 SHL SUB PUSH1 0x3 DUP6 ADD SLOAD AND SWAP6 DUP5 ADD SLOAD SWAP2 PUSH1 0x5 DUP6 ADD SLOAD SWAP4 PUSH2 0x118 PUSH1 0x7 PUSH1 0x6 DUP9 ADD SLOAD SWAP8 ADD SLOAD SWAP8 DUP4 MLOAD SWAP12 DUP13 SWAP12 DUP13 PUSH2 0x100 DUP1 SWAP2 MSTORE DUP14 ADD SWAP1 PUSH2 0xB28 JUMP JUMPDEST SWAP1 DUP12 DUP3 SUB PUSH1 0x20 DUP14 ADD MSTORE PUSH2 0xB28 JUMP JUMPDEST SWAP2 DUP10 DUP4 SUB SWAP1 DUP11 ADD MSTORE PUSH2 0xB28 JUMP JUMPDEST SWAP5 PUSH1 0x60 DUP8 ADD MSTORE PUSH1 0x80 DUP7 ADD MSTORE PUSH1 0xA0 DUP6 ADD MSTORE PUSH1 0xC0 DUP5 ADD MSTORE PUSH1 0xE0 DUP4 ADD MSTORE SUB SWAP1 RETURN JUMPDEST DUP3 DUP1 REVERT JUMPDEST DUP4 DUP4 DUP1 PUSH1 0x3 NOT CALLDATASIZE ADD SLT PUSH2 0x83 JUMPI DUP3 CALLDATALOAD SWAP1 PUSH1 0x24 CALLDATALOAD SWAP1 PUSH1 0x1 SWAP3 PUSH2 0x16B PUSH1 0x1 SLOAD DUP3 LT PUSH2 0xB4D JUMP JUMPDEST DUP1 DUP6 MSTORE PUSH1 0x20 DUP6 DUP2 MSTORE DUP3 DUP7 KECCAK256 PUSH1 0x3 ADD SLOAD SWAP1 SWAP2 SWAP1 PUSH2 0x191 SWAP1 PUSH1 0x1 PUSH1 0x1 PUSH1 0xA0 SHL SUB AND ISZERO ISZERO PUSH2 0xB4D JUMP JUMPDEST DUP1 DUP7 MSTORE DUP6 DUP3 MSTORE PUSH1 0x8 DUP4 DUP8 KECCAK256 ADD CALLER DUP8 MSTORE DUP3 MSTORE PUSH1 0xFF DUP4 DUP8 KECCAK256 SLOAD AND PUSH2 0x428 JUMPI PUSH2 0xE10 DUP5 SUB PUSH2 0x38E JUMPI DUP1 DUP7 MSTORE DUP6 DUP3 MSTORE DUP7 DUP4 DUP8 KECCAK256 ADD SLOAD SWAP7 JUMPDEST DUP8 CALLVALUE LT PUSH2 0x354 JUMPI POP DUP1 DUP7 MSTORE DUP6 DUP3 MSTORE PUSH1 0x8 DUP4 DUP8 KECCAK256 ADD CALLER DUP8 MSTORE DUP3 MSTORE DUP6 DUP1 DUP1 DUP1 DUP7 DUP2 KECCAK256 SWAP11 PUSH1 0xFF NOT SWAP12 PUSH1 0x1 DUP14 DUP3 SLOAD AND OR SWAP1 SSTORE DUP6 DUP3 MSTORE DUP2 DUP8 MSTORE PUSH1 0x9 DUP9 DUP4 KECCAK256 ADD CALLER DUP4 MSTORE DUP8 MSTORE TIMESTAMP DUP9 DUP4 KECCAK256 SSTORE DUP6 DUP3 MSTORE DUP2 DUP8 MSTORE PUSH1 0xA DUP9 DUP4 KECCAK256 ADD CALLER DUP4 MSTORE DUP8 MSTORE DUP9 DUP9 DUP4 KECCAK256 SSTORE DUP2 DUP2 ISZERO PUSH2 0x34B JUMPI JUMPDEST ADDRESS SWAP1 CALL ISZERO PUSH2 0x341 JUMPI DUP6 MSTORE DUP5 DUP2 MSTORE DUP2 DUP6 KECCAK256 DUP3 MLOAD SWAP5 PUSH1 0x60 DUP7 MSTORE DUP7 SWAP8 DUP3 SLOAD SWAP3 PUSH2 0x24B DUP5 PUSH2 0xA26 JUMP JUMPDEST SWAP4 DUP5 PUSH1 0x60 DUP11 ADD MSTORE PUSH1 0x80 SWAP3 PUSH1 0x1 DUP3 AND SWAP2 DUP3 PUSH1 0x0 EQ PUSH2 0x2F9 JUMPI POP POP PUSH1 0x1 EQ PUSH2 0x2A1 JUMPI JUMPDEST CALLER DUP6 DUP10 ADD MSTORE DUP6 DUP9 ADD DUP8 SWAP1 MSTORE DUP9 PUSH32 0x26A16DDC28892C09FEF75374D820CD8E706DE4E1594902960D9ECE6A99371AC1 DUP10 DUP13 SUB DUP11 LOG1 DUP1 RETURN JUMPDEST DUP9 MSTORE DUP4 DUP9 KECCAK256 SWAP4 SWAP9 POP DUP8 SWAP4 JUMPDEST DUP4 DUP6 LT PUSH2 0x2E6 JUMPI POP POP POP POP DUP4 ADD PUSH1 0x80 ADD SWAP5 DUP2 PUSH32 0x26A16DDC28892C09FEF75374D820CD8E706DE4E1594902960D9ECE6A99371AC1 DUP6 DUP10 PUSH2 0x26C JUMP JUMPDEST DUP1 SLOAD DUP9 DUP7 ADD DUP4 ADD MSTORE SWAP4 DUP10 ADD SWAP4 DUP3 ADD PUSH2 0x2AC JUMP JUMPDEST AND PUSH1 0x80 DUP11 DUP2 ADD SWAP2 SWAP1 SWAP2 MSTORE SWAP5 ISZERO ISZERO PUSH1 0x5 SHL DUP10 ADD SWAP1 SWAP5 ADD SWAP10 POP DUP6 SWAP4 POP PUSH32 0x26A16DDC28892C09FEF75374D820CD8E706DE4E1594902960D9ECE6A99371AC1 SWAP3 POP DUP8 SWAP2 POP DUP11 SWAP1 POP PUSH2 0x26C JUMP JUMPDEST DUP3 MLOAD RETURNDATASIZE DUP8 DUP3 RETURNDATACOPY RETURNDATASIZE SWAP1 REVERT JUMPDEST POP PUSH2 0x8FC PUSH2 0x226 JUMP JUMPDEST DUP4 MLOAD PUSH3 0x461BCD PUSH1 0xE5 SHL DUP2 MSTORE SWAP1 DUP2 ADD DUP4 SWAP1 MSTORE PUSH1 0x14 PUSH1 0x24 DUP3 ADD MSTORE PUSH20 0x125B9CDD59999A58DA595B9D081C185E5B595B9D PUSH1 0x62 SHL PUSH1 0x44 DUP3 ADD MSTORE PUSH1 0x64 SWAP1 REVERT JUMPDEST PUSH3 0x15180 DUP5 SUB PUSH2 0x3AB JUMPI DUP1 DUP7 MSTORE DUP6 DUP3 MSTORE PUSH1 0x5 DUP4 DUP8 KECCAK256 ADD SLOAD SWAP7 PUSH2 0x1C4 JUMP JUMPDEST PUSH3 0x93A80 DUP5 SUB PUSH2 0x3C8 JUMPI DUP1 DUP7 MSTORE DUP6 DUP3 MSTORE PUSH1 0x6 DUP4 DUP8 KECCAK256 ADD SLOAD SWAP7 PUSH2 0x1C4 JUMP JUMPDEST PUSH3 0x278D00 DUP5 SUB PUSH2 0x3E5 JUMPI DUP1 DUP7 MSTORE DUP6 DUP3 MSTORE PUSH1 0x7 DUP4 DUP8 KECCAK256 ADD SLOAD SWAP7 PUSH2 0x1C4 JUMP JUMPDEST DUP3 MLOAD PUSH3 0x461BCD PUSH1 0xE5 SHL DUP2 MSTORE DUP1 DUP9 ADD DUP4 SWAP1 MSTORE PUSH1 0x17 PUSH1 0x24 DUP3 ADD MSTORE PUSH32 0x496E76616C69642072656E74616C206475726174696F6E000000000000000000 PUSH1 0x44 DUP3 ADD MSTORE PUSH1 0x64 SWAP1 REVERT JUMPDEST PUSH1 0x64 DUP8 DUP4 DUP1 DUP7 MLOAD SWAP3 PUSH3 0x461BCD PUSH1 0xE5 SHL DUP5 MSTORE DUP4 ADD MSTORE PUSH1 0x24 DUP3 ADD MSTORE PUSH32 0x5573657220616C72656164792072656E746564207468697320414920746F6F6C PUSH1 0x44 DUP3 ADD MSTORE REVERT JUMPDEST SWAP1 POP DUP3 CALLVALUE PUSH2 0x973 JUMPI PUSH1 0xE0 CALLDATASIZE PUSH1 0x3 NOT ADD SLT PUSH2 0x973 JUMPI PUSH8 0xFFFFFFFFFFFFFFFF SWAP3 DUP3 CALLDATALOAD DUP5 DUP2 GT PUSH2 0x143 JUMPI PUSH2 0x49D SWAP1 CALLDATASIZE SWAP1 DUP6 ADD PUSH2 0x9CA JUMP JUMPDEST SWAP1 PUSH1 0x24 CALLDATALOAD DUP6 DUP2 GT PUSH2 0x96F JUMPI PUSH2 0x4B5 SWAP1 CALLDATASIZE SWAP1 DUP7 ADD PUSH2 0x9CA JUMP JUMPDEST PUSH1 0x44 CALLDATALOAD DUP7 DUP2 GT PUSH2 0x96B JUMPI PUSH2 0x4CC SWAP1 CALLDATASIZE SWAP1 DUP8 ADD PUSH2 0x9CA JUMP JUMPDEST SWAP6 PUSH2 0x4D6 DUP5 PUSH2 0xC16 JUMP JUMPDEST PUSH2 0x928 JUMPI PUSH2 0x4E3 DUP3 PUSH2 0xC9D JUMP JUMPDEST PUSH2 0x8DB JUMPI PUSH2 0x4F0 DUP8 PUSH2 0xD0A JUMP JUMPDEST PUSH2 0x898 JUMPI PUSH1 0x1 SWAP4 DUP5 SLOAD SWAP2 DUP3 DUP8 MSTORE PUSH1 0x20 SWAP4 DUP8 DUP6 MSTORE DUP6 DUP9 KECCAK256 DUP4 MLOAD DUP4 DUP2 GT PUSH2 0x7CD JUMPI DUP1 PUSH2 0x51A DUP4 SLOAD PUSH2 0xA26 JUMP JUMPDEST SWAP6 PUSH1 0x1F SWAP7 DUP8 DUP2 GT PUSH2 0x84A JUMPI JUMPDEST POP DUP9 SWAP1 DUP8 DUP4 GT PUSH1 0x1 EQ PUSH2 0x7EB JUMPI DUP13 SWAP3 PUSH2 0x7E0 JUMPI JUMPDEST POP POP PUSH1 0x0 NOT PUSH1 0x3 DUP4 SWAP1 SHL SHR NOT AND SWAP1 DUP10 SHL OR SWAP1 SSTORE JUMPDEST DUP4 DUP9 MSTORE DUP8 DUP6 MSTORE DUP7 DUP7 DUP10 KECCAK256 ADD SWAP1 DUP1 MLOAD SWAP1 DUP4 DUP3 GT PUSH2 0x7CD JUMPI DUP2 SWAP1 PUSH2 0x570 DUP5 SLOAD PUSH2 0xA26 JUMP JUMPDEST DUP7 DUP2 GT PUSH2 0x77F JUMPI JUMPDEST POP DUP8 SWAP1 DUP7 DUP4 GT PUSH1 0x1 EQ PUSH2 0x720 JUMPI DUP12 SWAP3 PUSH2 0x715 JUMPI JUMPDEST POP POP PUSH1 0x0 NOT PUSH1 0x3 DUP4 SWAP1 SHL SHR NOT AND SWAP1 DUP9 SHL OR SWAP1 SSTORE JUMPDEST DUP3 DUP8 MSTORE DUP7 DUP5 MSTORE PUSH1 0x2 DUP6 DUP9 KECCAK256 ADD SWAP2 DUP10 MLOAD SWAP2 DUP3 GT PUSH2 0x702 JUMPI PUSH2 0x5C0 DUP4 SLOAD PUSH2 0xA26 JUMP JUMPDEST DUP2 DUP2 GT PUSH2 0x6C3 JUMPI JUMPDEST POP DUP8 SWAP9 SWAP10 DUP9 SWAP7 SWAP8 SWAP9 POP DUP6 SWAP2 DUP4 GT PUSH1 0x1 EQ PUSH2 0x662 JUMPI DUP7 SWAP2 SWAP1 DUP4 PUSH2 0x657 JUMPI JUMPDEST POP POP PUSH1 0x0 NOT PUSH1 0x3 DUP4 SWAP1 SHL SHR NOT AND SWAP1 DUP8 SHL OR SWAP1 SSTORE JUMPDEST DUP3 MSTORE MSTORE DUP3 KECCAK256 PUSH1 0x3 DUP2 ADD DUP1 SLOAD PUSH1 0x1 PUSH1 0x1 PUSH1 0xA0 SHL SUB NOT AND CALLER OR SWAP1 SSTORE PUSH1 0x64 CALLDATALOAD DUP5 DUP3 ADD SSTORE PUSH1 0x84 CALLDATALOAD PUSH1 0x5 DUP3 ADD SSTORE PUSH1 0xA4 CALLDATALOAD PUSH1 0x6 DUP3 ADD SSTORE PUSH1 0xC4 CALLDATALOAD PUSH1 0x7 SWAP1 SWAP2 ADD SSTORE DUP1 SLOAD PUSH1 0x0 NOT DUP2 EQ PUSH2 0x644 JUMPI DUP2 ADD SWAP1 SSTORE DUP1 RETURN JUMPDEST PUSH4 0x4E487B71 PUSH1 0xE0 SHL DUP4 MSTORE PUSH1 0x11 DUP5 MSTORE PUSH1 0x24 DUP4 REVERT JUMPDEST ADD MLOAD SWAP1 POP DUP11 DUP1 PUSH2 0x5E5 JUMP JUMPDEST DUP4 DUP8 MSTORE DUP6 DUP8 KECCAK256 DUP10 SWAP4 SWAP3 SWAP1 SWAP2 PUSH1 0x1F NOT DUP5 AND DUP10 JUMPDEST DUP2 DUP2 LT PUSH2 0x6A9 JUMPI POP DUP5 GT PUSH2 0x690 JUMPI JUMPDEST POP POP POP DUP2 SHL ADD SWAP1 SSTORE PUSH2 0x5F9 JUMP JUMPDEST ADD MLOAD PUSH1 0x0 NOT PUSH1 0xF8 DUP5 PUSH1 0x3 SHL AND SHR NOT AND SWAP1 SSTORE DUP11 DUP1 DUP1 PUSH2 0x683 JUMP JUMPDEST DUP4 DUP4 ADD MLOAD DUP6 SSTORE DUP14 SWAP11 POP DUP13 SWAP7 SWAP1 SWAP5 ADD SWAP4 SWAP3 DUP10 ADD SWAP3 DUP10 ADD PUSH2 0x674 JUMP JUMPDEST DUP4 DUP10 MSTORE DUP6 DUP10 KECCAK256 DUP3 DUP1 DUP6 ADD PUSH1 0x5 SHR DUP3 ADD SWAP3 DUP9 DUP7 LT PUSH2 0x6F9 JUMPI JUMPDEST ADD PUSH1 0x5 SHR ADD SWAP1 JUMPDEST DUP2 DUP2 LT PUSH2 0x6EF JUMPI POP PUSH2 0x5C8 JUMP JUMPDEST DUP10 DUP2 SSTORE DUP9 ADD PUSH2 0x6E2 JUMP JUMPDEST SWAP3 POP DUP2 SWAP3 PUSH2 0x6DB JUMP JUMPDEST PUSH4 0x4E487B71 PUSH1 0xE0 SHL DUP9 MSTORE PUSH1 0x41 DUP10 MSTORE PUSH1 0x24 DUP9 REVERT JUMPDEST ADD MLOAD SWAP1 POP DUP13 DUP1 PUSH2 0x58C JUMP JUMPDEST DUP5 DUP13 MSTORE DUP9 DUP13 KECCAK256 DUP12 SWAP5 POP SWAP2 SWAP1 PUSH1 0x1F NOT DUP5 AND DUP14 JUMPDEST DUP12 DUP3 DUP3 LT PUSH2 0x769 JUMPI POP POP DUP5 GT PUSH2 0x750 JUMPI JUMPDEST POP POP POP DUP2 SHL ADD SWAP1 SSTORE PUSH2 0x5A0 JUMP JUMPDEST ADD MLOAD PUSH1 0x0 NOT PUSH1 0xF8 DUP5 PUSH1 0x3 SHL AND SHR NOT AND SWAP1 SSTORE DUP13 DUP1 DUP1 PUSH2 0x743 JUMP JUMPDEST DUP4 DUP6 ADD MLOAD DUP7 SSTORE DUP15 SWAP8 SWAP1 SWAP6 ADD SWAP5 SWAP4 DUP5 ADD SWAP4 ADD PUSH2 0x732 JUMP JUMPDEST SWAP1 SWAP2 POP DUP4 DUP12 MSTORE DUP8 DUP12 KECCAK256 DUP7 DUP1 DUP6 ADD PUSH1 0x5 SHR DUP3 ADD SWAP3 DUP11 DUP7 LT PUSH2 0x7C4 JUMPI JUMPDEST SWAP2 DUP13 SWAP2 DUP7 SWAP6 SWAP5 SWAP4 ADD PUSH1 0x5 SHR ADD SWAP2 JUMPDEST DUP3 DUP2 LT PUSH2 0x7B6 JUMPI POP POP PUSH2 0x578 JUMP JUMPDEST DUP14 DUP2 SSTORE DUP6 SWAP5 POP DUP13 SWAP2 ADD PUSH2 0x7A8 JUMP JUMPDEST SWAP3 POP DUP2 SWAP3 PUSH2 0x79A JUMP JUMPDEST PUSH4 0x4E487B71 PUSH1 0xE0 SHL DUP11 MSTORE PUSH1 0x41 DUP12 MSTORE PUSH1 0x24 DUP11 REVERT JUMPDEST ADD MLOAD SWAP1 POP DUP14 DUP1 PUSH2 0x53A JUMP JUMPDEST DUP5 DUP14 MSTORE DUP10 DUP14 KECCAK256 DUP13 SWAP5 POP SWAP2 SWAP1 PUSH1 0x1F NOT DUP5 AND DUP15 JUMPDEST DUP13 DUP3 DUP3 LT PUSH2 0x834 JUMPI POP POP DUP5 GT PUSH2 0x81B JUMPI JUMPDEST POP POP POP DUP2 SHL ADD SWAP1 SSTORE PUSH2 0x54E JUMP JUMPDEST ADD MLOAD PUSH1 0x0 NOT PUSH1 0xF8 DUP5 PUSH1 0x3 SHL AND SHR NOT AND SWAP1 SSTORE DUP14 DUP1 DUP1 PUSH2 0x80E JUMP JUMPDEST DUP4 DUP6 ADD MLOAD DUP7 SSTORE DUP16 SWAP8 SWAP1 SWAP6 ADD SWAP5 SWAP4 DUP5 ADD SWAP4 ADD PUSH2 0x7FD JUMP JUMPDEST SWAP1 SWAP2 POP DUP4 DUP13 MSTORE DUP9 DUP13 KECCAK256 DUP8 DUP1 DUP6 ADD PUSH1 0x5 SHR DUP3 ADD SWAP3 DUP12 DUP7 LT PUSH2 0x88F JUMPI JUMPDEST SWAP2 DUP14 SWAP2 DUP7 SWAP6 SWAP5 SWAP4 ADD PUSH1 0x5 SHR ADD SWAP2 JUMPDEST DUP3 DUP2 LT PUSH2 0x881 JUMPI POP POP PUSH2 0x526 JUMP JUMPDEST DUP15 DUP2 SSTORE DUP6 SWAP5 POP DUP14 SWAP2 ADD PUSH2 0x873 JUMP JUMPDEST SWAP3 POP DUP2 SWAP3 PUSH2 0x865 JUMP JUMPDEST DUP3 MLOAD PUSH3 0x461BCD PUSH1 0xE5 SHL DUP2 MSTORE PUSH1 0x20 DUP2 DUP9 ADD MSTORE PUSH1 0x1E PUSH1 0x24 DUP3 ADD MSTORE PUSH32 0x414920746F6F6C2041504920616C726561647920726567697374657265640000 PUSH1 0x44 DUP3 ADD MSTORE PUSH1 0x64 SWAP1 REVERT JUMPDEST DUP3 MLOAD PUSH3 0x461BCD PUSH1 0xE5 SHL DUP2 MSTORE PUSH1 0x20 DUP2 DUP9 ADD MSTORE PUSH1 0x21 PUSH1 0x24 DUP3 ADD MSTORE PUSH32 0x414920746F6F6C2073796D626F6C20616C726561647920726567697374657265 PUSH1 0x44 DUP3 ADD MSTORE PUSH1 0x19 PUSH1 0xFA SHL PUSH1 0x64 DUP3 ADD MSTORE PUSH1 0x84 SWAP1 REVERT JUMPDEST DUP3 MLOAD PUSH3 0x461BCD PUSH1 0xE5 SHL DUP2 MSTORE PUSH1 0x20 DUP2 DUP9 ADD MSTORE PUSH1 0x1F PUSH1 0x24 DUP3 ADD MSTORE PUSH32 0x414920746F6F6C206E616D6520616C7265616479207265676973746572656400 PUSH1 0x44 DUP3 ADD MSTORE PUSH1 0x64 SWAP1 REVERT JUMPDEST DUP5 DUP1 REVERT JUMPDEST DUP4 DUP1 REVERT JUMPDEST DUP1 REVERT JUMPDEST DUP5 SWAP1 CALLVALUE PUSH2 0x83 JUMPI DUP2 PUSH1 0x3 NOT CALLDATASIZE ADD SLT PUSH2 0x83 JUMPI PUSH1 0x20 SWAP1 PUSH1 0x1 SLOAD DUP2 MSTORE RETURN JUMPDEST SWAP1 PUSH1 0x1F DUP1 NOT SWAP2 ADD AND DUP2 ADD SWAP1 DUP2 LT PUSH8 0xFFFFFFFFFFFFFFFF DUP3 GT OR PUSH2 0x9B4 JUMPI PUSH1 0x40 MSTORE JUMP JUMPDEST PUSH4 0x4E487B71 PUSH1 0xE0 SHL PUSH1 0x0 MSTORE PUSH1 0x41 PUSH1 0x4 MSTORE PUSH1 0x24 PUSH1 0x0 REVERT JUMPDEST DUP2 PUSH1 0x1F DUP3 ADD SLT ISZERO PUSH2 0xA21 JUMPI DUP1 CALLDATALOAD SWAP1 PUSH8 0xFFFFFFFFFFFFFFFF DUP3 GT PUSH2 0x9B4 JUMPI PUSH1 0x40 MLOAD SWAP3 PUSH2 0x9FF PUSH1 0x1F DUP5 ADD PUSH1 0x1F NOT AND PUSH1 0x20 ADD DUP6 PUSH2 0x992 JUMP JUMPDEST DUP3 DUP5 MSTORE PUSH1 0x20 DUP4 DUP4 ADD ADD GT PUSH2 0xA21 JUMPI DUP2 PUSH1 0x0 SWAP3 PUSH1 0x20 DUP1 SWAP4 ADD DUP4 DUP7 ADD CALLDATACOPY DUP4 ADD ADD MSTORE SWAP1 JUMP JUMPDEST PUSH1 0x0 DUP1 REVERT JUMPDEST SWAP1 PUSH1 0x1 DUP3 DUP2 SHR SWAP3 AND DUP1 ISZERO PUSH2 0xA56 JUMPI JUMPDEST PUSH1 0x20 DUP4 LT EQ PUSH2 0xA40 JUMPI JUMP JUMPDEST PUSH4 0x4E487B71 PUSH1 0xE0 SHL PUSH1 0x0 MSTORE PUSH1 0x22 PUSH1 0x4 MSTORE PUSH1 0x24 PUSH1 0x0 REVERT JUMPDEST SWAP2 PUSH1 0x7F AND SWAP2 PUSH2 0xA35 JUMP JUMPDEST SWAP1 PUSH1 0x40 MLOAD SWAP2 DUP3 PUSH1 0x0 DUP3 SLOAD PUSH2 0xA73 DUP2 PUSH2 0xA26 JUMP JUMPDEST SWAP1 DUP2 DUP5 MSTORE PUSH1 0x20 SWAP5 PUSH1 0x1 SWAP2 PUSH1 0x1 DUP2 AND SWAP1 DUP2 PUSH1 0x0 EQ PUSH2 0xAE3 JUMPI POP PUSH1 0x1 EQ PUSH2 0xAA4 JUMPI JUMPDEST POP POP POP PUSH2 0xAA2 SWAP3 POP SUB DUP4 PUSH2 0x992 JUMP JUMPDEST JUMP JUMPDEST PUSH1 0x0 SWAP1 DUP2 MSTORE DUP6 DUP2 KECCAK256 SWAP6 SWAP4 POP SWAP2 SWAP1 JUMPDEST DUP2 DUP4 LT PUSH2 0xACB JUMPI POP POP PUSH2 0xAA2 SWAP4 POP DUP3 ADD ADD CODESIZE DUP1 DUP1 PUSH2 0xA93 JUMP JUMPDEST DUP6 SLOAD DUP9 DUP5 ADD DUP6 ADD MSTORE SWAP5 DUP6 ADD SWAP5 DUP8 SWAP5 POP SWAP2 DUP4 ADD SWAP2 PUSH2 0xAB2 JUMP JUMPDEST SWAP3 POP POP POP PUSH2 0xAA2 SWAP5 SWAP3 POP PUSH1 0xFF NOT AND DUP3 DUP5 ADD MSTORE ISZERO ISZERO PUSH1 0x5 SHL DUP3 ADD ADD CODESIZE DUP1 DUP1 PUSH2 0xA93 JUMP JUMPDEST PUSH1 0x0 JUMPDEST DUP4 DUP2 LT PUSH2 0xB18 JUMPI POP POP PUSH1 0x0 SWAP2 ADD MSTORE JUMP JUMPDEST DUP2 DUP2 ADD MLOAD DUP4 DUP3 ADD MSTORE PUSH1 0x20 ADD PUSH2 0xB08 JUMP JUMPDEST SWAP1 PUSH1 0x20 SWAP2 PUSH2 0xB41 DUP2 MLOAD DUP1 SWAP3 DUP2 DUP6 MSTORE DUP6 DUP1 DUP7 ADD SWAP2 ADD PUSH2 0xB05 JUMP JUMPDEST PUSH1 0x1F ADD PUSH1 0x1F NOT AND ADD ADD SWAP1 JUMP JUMPDEST ISZERO PUSH2 0xB54 JUMPI JUMP JUMPDEST PUSH1 0x40 MLOAD PUSH3 0x461BCD PUSH1 0xE5 SHL DUP2 MSTORE PUSH1 0x20 PUSH1 0x4 DUP3 ADD MSTORE PUSH1 0x16 PUSH1 0x24 DUP3 ADD MSTORE PUSH22 0x1052481D1BDBDB081B9BDD081C9959DA5CDD195C9959 PUSH1 0x52 SHL PUSH1 0x44 DUP3 ADD MSTORE PUSH1 0x64 SWAP1 REVERT JUMPDEST PUSH1 0x0 SWAP3 SWAP2 DUP2 SLOAD PUSH2 0xBA1 DUP2 PUSH2 0xA26 JUMP JUMPDEST SWAP3 PUSH1 0x1 SWAP2 DUP1 DUP4 AND SWAP1 DUP2 ISZERO PUSH2 0xBFB JUMPI POP PUSH1 0x1 EQ PUSH2 0xBBE JUMPI JUMPDEST POP POP POP POP JUMP JUMPDEST SWAP1 SWAP2 SWAP3 SWAP4 SWAP5 POP PUSH1 0x0 MSTORE PUSH1 0x20 SWAP1 PUSH1 0x20 PUSH1 0x0 KECCAK256 SWAP1 PUSH1 0x0 SWAP2 JUMPDEST DUP6 DUP4 LT PUSH2 0xBEA JUMPI POP POP POP POP ADD SWAP1 CODESIZE DUP1 DUP1 DUP1 PUSH2 0xBB8 JUMP JUMPDEST DUP1 SLOAD DUP6 DUP5 ADD MSTORE SWAP2 DUP4 ADD SWAP2 DUP2 ADD PUSH2 0xBD4 JUMP JUMPDEST PUSH1 0xFF NOT AND DUP5 MSTORE POP POP POP DUP2 ISZERO ISZERO SWAP1 SWAP2 MUL ADD SWAP2 POP CODESIZE DUP1 DUP1 DUP1 PUSH2 0xBB8 JUMP JUMPDEST PUSH1 0x1 DUP1 SLOAD SWAP1 SWAP2 DUP3 JUMPDEST DUP3 DUP2 LT PUSH2 0xC2E JUMPI POP POP POP POP PUSH1 0x0 SWAP1 JUMP JUMPDEST PUSH1 0x0 DUP2 DUP2 MSTORE PUSH1 0x20 DUP2 DUP2 MSTORE PUSH1 0x40 DUP1 SWAP3 KECCAK256 DUP3 MLOAD PUSH2 0xC5E DUP2 PUSH2 0xC50 DUP6 DUP3 ADD DUP1 SWAP6 PUSH2 0xB92 JUMP JUMPDEST SUB PUSH1 0x1F NOT DUP2 ADD DUP4 MSTORE DUP3 PUSH2 0x992 JUMP JUMPDEST MLOAD SWAP1 KECCAK256 SWAP2 MLOAD PUSH2 0xC87 DUP3 DUP3 ADD SWAP3 DUP3 DUP8 MLOAD PUSH2 0xC7A DUP2 DUP8 DUP6 DUP13 ADD PUSH2 0xB05 JUMP JUMPDEST DUP2 ADD SUB DUP1 DUP5 MSTORE ADD DUP3 PUSH2 0x992 JUMP JUMPDEST MLOAD SWAP1 KECCAK256 EQ PUSH2 0xC96 JUMPI DUP4 ADD PUSH2 0xC1E JUMP JUMPDEST SWAP3 POP POP POP SWAP1 JUMP JUMPDEST PUSH1 0x1 SWAP1 DUP2 SLOAD SWAP2 JUMPDEST DUP3 DUP2 LT PUSH2 0xCB3 JUMPI POP POP POP PUSH1 0x0 SWAP1 JUMP JUMPDEST PUSH1 0x0 DUP2 DUP2 MSTORE PUSH1 0x20 DUP2 DUP2 MSTORE PUSH1 0x1 PUSH1 0x40 DUP1 SWAP4 KECCAK256 ADD DUP3 MLOAD PUSH2 0xCD8 DUP2 PUSH2 0xC50 DUP6 DUP3 ADD DUP1 SWAP6 PUSH2 0xB92 JUMP JUMPDEST MLOAD SWAP1 KECCAK256 SWAP2 MLOAD PUSH2 0xCF4 DUP3 DUP3 ADD SWAP3 DUP3 DUP8 MLOAD PUSH2 0xC7A DUP2 DUP8 DUP6 DUP13 ADD PUSH2 0xB05 JUMP JUMPDEST MLOAD SWAP1 KECCAK256 EQ PUSH2 0xD04 JUMPI PUSH1 0x1 ADD PUSH2 0xCA4 JUMP JUMPDEST SWAP2 POP POP SWAP1 JUMP JUMPDEST PUSH1 0x1 DUP1 SLOAD SWAP1 SWAP2 DUP3 JUMPDEST DUP3 DUP2 LT PUSH2 0xD22 JUMPI POP POP POP POP PUSH1 0x0 SWAP1 JUMP JUMPDEST PUSH1 0x0 DUP2 DUP2 MSTORE PUSH1 0x20 DUP2 DUP2 MSTORE PUSH1 0x2 PUSH1 0x40 DUP1 SWAP4 KECCAK256 ADD DUP3 MLOAD PUSH2 0xD47 DUP2 PUSH2 0xC50 DUP6 DUP3 ADD DUP1 SWAP6 PUSH2 0xB92 JUMP JUMPDEST MLOAD SWAP1 KECCAK256 SWAP2 MLOAD PUSH2 0xD63 DUP3 DUP3 ADD SWAP3 DUP3 DUP8 MLOAD PUSH2 0xC7A DUP2 DUP8 DUP6 DUP13 ADD PUSH2 0xB05 JUMP JUMPDEST MLOAD SWAP1 KECCAK256 EQ PUSH2 0xC96 JUMPI DUP4 ADD PUSH2 0xD12 JUMP INVALID LOG2 PUSH5 0x6970667358 0x22 SLT KECCAK256 RETURN 0x2F 0xEB 0x29 CALLDATASIZE SWAP16 0x25 SWAP8 PC PUSH29 0x64ED755D88A2EAB8B7D841F815D1A8D9D9A112BC8E8D64736F6C634300 ADDMOD XOR STOP CALLER "},"methodIdentifiers":{"aiTools(uint256)":"744ac99d","nextID()":"1e96917d","owner()":"8da5cb5b","registerAITool(string,string,string,uint256,uint256,uint256,uint256)":"392ab809","rentAITool(uint256,uint256)":"4e83ac02"}}}}}