{
  "_format": "hh-sol-artifact-1",
  "contractName": "APIrequest",
  "sourceName": "contracts/APIrequest.sol",
  "abi": [
    {
      "inputs": [],
      "stateMutability": "nonpayable",
      "type": "constructor"
    },
    {
      "inputs": [],
      "name": "EmptyArgs",
      "type": "error"
    },
    {
      "inputs": [],
      "name": "EmptySecrets",
      "type": "error"
    },
    {
      "inputs": [],
      "name": "EmptySource",
      "type": "error"
    },
    {
      "inputs": [],
      "name": "NoInlineSecrets",
      "type": "error"
    },
    {
      "inputs": [],
      "name": "OnlyRouterCanFulfill",
      "type": "error"
    },
    {
      "inputs": [
        {
          "internalType": "bytes32",
          "name": "requestId",
          "type": "bytes32"
        }
      ],
      "name": "UnexpectedRequestID",
      "type": "error"
    },
    {
      "anonymous": false,
      "inputs": [
        {
          "indexed": true,
          "internalType": "address",
          "name": "from",
          "type": "address"
        },
        {
          "indexed": true,
          "internalType": "address",
          "name": "to",
          "type": "address"
        }
      ],
      "name": "OwnershipTransferRequested",
      "type": "event"
    },
    {
      "anonymous": false,
      "inputs": [
        {
          "indexed": true,
          "internalType": "address",
          "name": "from",
          "type": "address"
        },
        {
          "indexed": true,
          "internalType": "address",
          "name": "to",
          "type": "address"
        }
      ],
      "name": "OwnershipTransferred",
      "type": "event"
    },
    {
      "anonymous": false,
      "inputs": [
        {
          "indexed": true,
          "internalType": "bytes32",
          "name": "id",
          "type": "bytes32"
        }
      ],
      "name": "RequestFulfilled",
      "type": "event"
    },
    {
      "anonymous": false,
      "inputs": [
        {
          "indexed": true,
          "internalType": "bytes32",
          "name": "id",
          "type": "bytes32"
        }
      ],
      "name": "RequestSent",
      "type": "event"
    },
    {
      "anonymous": false,
      "inputs": [
        {
          "indexed": true,
          "internalType": "bytes32",
          "name": "requestId",
          "type": "bytes32"
        },
        {
          "indexed": false,
          "internalType": "bytes",
          "name": "response",
          "type": "bytes"
        },
        {
          "indexed": false,
          "internalType": "bytes",
          "name": "err",
          "type": "bytes"
        }
      ],
      "name": "Response",
      "type": "event"
    },
    {
      "inputs": [],
      "name": "acceptOwnership",
      "outputs": [],
      "stateMutability": "nonpayable",
      "type": "function"
    },
    {
      "inputs": [
        {
          "internalType": "bytes32",
          "name": "requestId",
          "type": "bytes32"
        },
        {
          "internalType": "bytes",
          "name": "response",
          "type": "bytes"
        },
        {
          "internalType": "bytes",
          "name": "err",
          "type": "bytes"
        }
      ],
      "name": "handleOracleFulfillment",
      "outputs": [],
      "stateMutability": "nonpayable",
      "type": "function"
    },
    {
      "inputs": [],
      "name": "owner",
      "outputs": [
        {
          "internalType": "address",
          "name": "",
          "type": "address"
        }
      ],
      "stateMutability": "view",
      "type": "function"
    },
    {
      "inputs": [],
      "name": "result",
      "outputs": [
        {
          "internalType": "string",
          "name": "",
          "type": "string"
        }
      ],
      "stateMutability": "view",
      "type": "function"
    },
    {
      "inputs": [],
      "name": "s_lastError",
      "outputs": [
        {
          "internalType": "bytes",
          "name": "",
          "type": "bytes"
        }
      ],
      "stateMutability": "view",
      "type": "function"
    },
    {
      "inputs": [],
      "name": "s_lastRequestId",
      "outputs": [
        {
          "internalType": "bytes32",
          "name": "",
          "type": "bytes32"
        }
      ],
      "stateMutability": "view",
      "type": "function"
    },
    {
      "inputs": [],
      "name": "s_lastResponse",
      "outputs": [
        {
          "internalType": "bytes",
          "name": "",
          "type": "bytes"
        }
      ],
      "stateMutability": "view",
      "type": "function"
    },
    {
      "inputs": [
        {
          "internalType": "string[]",
          "name": "args",
          "type": "string[]"
        },
        {
          "internalType": "bytes[]",
          "name": "bytesArgs",
          "type": "bytes[]"
        },
        {
          "internalType": "bytes",
          "name": "encryptedSecretsUrls",
          "type": "bytes"
        },
        {
          "internalType": "uint8",
          "name": "donHostedSecretsSlotID",
          "type": "uint8"
        },
        {
          "internalType": "uint64",
          "name": "donHostedSecretsVersion",
          "type": "uint64"
        }
      ],
      "name": "sendRequest",
      "outputs": [
        {
          "internalType": "bytes32",
          "name": "requestId",
          "type": "bytes32"
        }
      ],
      "stateMutability": "nonpayable",
      "type": "function"
    },
    {
      "inputs": [
        {
          "internalType": "bytes",
          "name": "request",
          "type": "bytes"
        },
        {
          "internalType": "uint64",
          "name": "subscriptionId",
          "type": "uint64"
        },
        {
          "internalType": "uint32",
          "name": "gasLimit",
          "type": "uint32"
        },
        {
          "internalType": "bytes32",
          "name": "donID",
          "type": "bytes32"
        }
      ],
      "name": "sendRequestCBOR",
      "outputs": [
        {
          "internalType": "bytes32",
          "name": "requestId",
          "type": "bytes32"
        }
      ],
      "stateMutability": "nonpayable",
      "type": "function"
    },
    {
      "inputs": [
        {
          "internalType": "address",
          "name": "to",
          "type": "address"
        }
      ],
      "name": "transferOwnership",
      "outputs": [],
      "stateMutability": "nonpayable",
      "type": "function"
    }
  ],
  "bytecode": "0x60a080604052346100f0576005546001600160a01b0381166080529033156100ae57600080546001600160a01b031916331790556001600160e01b03198216750a57b83e47c2bc239b3bf370bc41e1459a34b41238d0176005557f66756e2d657468657265756d2d6d61696e6e65742d31000000000000000000006006556007805463ffffffff1916620493e017905560405161222890816100f6823960805181818161010c0152610fd00152f35b62461bcd60e51b815260206004820152601860248201527f43616e6e6f7420736574206f776e657220746f207a65726f00000000000000006044820152606490fd5b600080fdfe608060405260048036101561001357600080fd5b600090813560e01c9182630ca76175146100bd57505080633944ea3a146100b85780634b0795a8146100b357806365372147146100ae57806379ba5097146100a95780638da5cb5b146100a45780639681096f1461009f578063b1e217491461009a578063e1da6c89146100955763f2fde38b1461009057600080fd5b610a72565b610965565b6108a1565b61082c565b6107ed565b610731565b61064c565b6104f0565b61041c565b346102b85760603660031901126102b8578135602435926001600160401b03938481116102b4576100f19036908301610373565b936044358181116102b0576101099036908401610373565b917f00000000000000000000000000000000000000000000000000000000000000006001600160a01b031633036102a157836002540361028957508451908111610284576101618161015c600354610391565b610c5e565b602080601f8311600114610204575090806101989286976101a09697926101f9575b50508160011b916000199060031b1c19161790565b600355610d1e565b807f7873807bf6ddc50401cd3d29bbe0decee23fd4d68d273f4b5eb83cded4d2f172604051806101cf81610e9d565b0390a27f85e1543bf2f84fe80c6badbce3648c8539ad1df4d2b3d822938ca0538be727e68280a280f35b015190508780610183565b90601f1983169661022560036000526000805160206121b383398151915290565b9287905b89821061026c575050908392916001946101a097989910610253575b505050811b01600355610d1e565b015160001960f88460031b161c19169055868080610245565b80600185968294968601518155019501930190610229565b6102bb565b60405163d068bf5b60e01b8152908101849052602490fd5b60405163c6829f8360e01b8152fd5b8480fd5b8380fd5b80fd5b634e487b7160e01b600052604160045260246000fd5b60e081019081106001600160401b0382111761028457604052565b604081019081106001600160401b0382111761028457604052565b90601f801991011681019081106001600160401b0382111761028457604052565b9291926001600160401b0382116102845760405191610351601f8201601f191660200184610307565b82948184528183011161036e578281602093846000960137010152565b600080fd5b9080601f8301121561036e5781602061038e93359101610328565b90565b90600182811c921680156103c1575b60208310146103ab57565b634e487b7160e01b600052602260045260246000fd5b91607f16916103a0565b919082519283825260005b8481106103f7575050826000602080949584010152601f8019910116010190565b6020818301810151848301820152016103d6565b90602061038e9281815201906103cb565b3461036e576000806003193601126102b85760405190806003549061044082610391565b808552916020916001918281169081156104c3575060011461047d575b6104798661046d81880382610307565b6040519182918261040b565b0390f35b9350600384526000805160206121b38339815191525b8385106104b05750505050810160200161046d826104793861045d565b8054868601840152938201938101610493565b90508695506104799693506020925061046d94915060ff191682840152151560051b82010192933861045d565b3461036e576000806003193601126102b85760405190806004549061051482610391565b808552916020916001918281169081156104c35750600114610540576104798661046d81880382610307565b9350600484526000805160206121d38339815191525b8385106105735750505050810160200161046d826104793861045d565b8054868601840152938201938101610556565b604051906000826009549161059a83610391565b8083529260209060019081811690811561062857506001146105c7575b50506105c592500383610307565b565b91509260096000527f6e1540171b6c0c960b71a7020d9f60077f6af931a8bbf590da0223dacf75c7af936000925b82841061061057506105c594505050810160200138806105b7565b855488850183015294850194879450928101926105f5565b915050602092506105c594915060ff191682840152151560051b82010138806105b7565b3461036e576000806003193601126102b8576040519080826008549161067183610391565b928383526020946001918660018216918260001461070f5750506001146106b5575b50506106a192500383610307565b6104796040519282849384528301906103cb565b90859250600882527ff3f7a9fe364faab93b216da50a3214154f22a0a2b415b23a84c8169e8b636ee35b8583106106f75750506106a193508201013880610693565b805483890185015287945086939092019181016106df565b92509350506106a194915060ff191682840152151560051b8201013880610693565b3461036e576000806003193601126102b8576001546001600160a01b0390811633036107af5781546001600160a01b0316600080546001600160a01b0319163317905590600180546001600160a01b03191690553391167f8be0079c531659141344cd1fd0a4f28419497f9722a3daafe3b4186f6b6457e08380a380f35b60405162461bcd60e51b815260206004820152601660248201527526bab9ba10313290383937b837b9b2b21037bbb732b960511b6044820152606490fd5b3461036e57600036600319011261036e576000546040516001600160a01b039091168152602090f35b608435906001600160401b038216820361036e57565b3461036e57608036600319011261036e576001600160401b0360043581811161036e5761085d903690600401610373565b90602435908116810361036e576044359163ffffffff8316830361036e576104799261088c9260643592610f78565b80600255604051918291829190602083019252565b3461036e57600036600319011261036e576020600254604051908152f35b6001600160401b0381116102845760051b60200190565b81601f8201121561036e578035916020916108f0846108bf565b936108fe6040519586610307565b808552838086019160051b8301019280841161036e57848301915b8483106109295750505050505090565b82356001600160401b03811161036e57869161094a84848094890101610373565b815201920191610919565b6064359060ff8216820361036e57565b3461036e5760a036600319011261036e576004356001600160401b0380821161036e573660238301121561036e5781600401356024926109a4826108bf565b936109b26040519586610307565b8285526020926024602087019160051b8401019236841161036e5760248101915b848310610a3b57878760243581811161036e576109f49036906004016108d6565b9160443591821161036e5761047992610a14610a2b933690600401610373565b610a1c610955565b91610a25610816565b93610b67565b6040519081529081906020820190565b823587811161036e5782013660438201121561036e578691610a67839236906044898201359101610328565b8152019201916109d3565b3461036e57602036600319011261036e576004356001600160a01b038181169182900361036e5760005416803303610b2957338214610ae457600180546001600160a01b031916831790557fed8889f560326eb138920d842192f0eb3dd22b4f139c87a2c57538e05bae1278600080a3005b60405162461bcd60e51b815260206004820152601760248201527f43616e6e6f74207472616e7366657220746f2073656c660000000000000000006044820152606490fd5b60405162461bcd60e51b815260206004820152601660248201527527b7363c9031b0b63630b1363290313c9037bbb732b960511b6044820152606490fd5b90610c0f9491610c0a94610be89460405194610b82866102d1565b60008652600060208701526000604087015260608087015260606080870152606060a0870152606060c0870152610bc0610bba610586565b87611463565b815115610c355750610bd391508461110e565b8051610c25575b508051610c15575b50611295565b60055460a01c6001600160401b031660075463ffffffff169060065492610f78565b600255565b60025490565b610c1f9082611153565b38610be2565b610c2f9083611134565b38610bda565b90506001600160401b038116610c4d575b5050610bd3565b610c57918561108c565b3880610c46565b601f8111610c6a575050565b60009060036000526000805160206121b3833981519152906020601f850160051c83019410610cb4575b601f0160051c01915b828110610ca957505050565b818155600101610c9d565b9092508290610c94565b601f8111610cca575050565b60009060046000526000805160206121d3833981519152906020601f850160051c83019410610d14575b601f0160051c01915b828110610d0957505050565b818155600101610cfd565b9092508290610cf4565b9081516001600160401b03811161028457610d4381610d3e600454610391565b610cbe565b602080601f8311600114610d8557508190610d759394600092610d7a5750508160011b916000199060031b1c19161790565b600455565b015190503880610183565b90601f19831694610da660046000526000805160206121d383398151915290565b926000905b878210610de3575050836001959610610dca575b505050811b01600455565b015160001960f88460031b161c19169055388080610dbf565b80600185968294968601518155019501930190610dab565b60045460009291610e0b82610391565b80825291602090600190818116908115610e785750600114610e2e575b50505050565b9293945060046000526000805160206121d3833981519152926000935b858510610e65575050506020925001019038808080610e28565b8054858501840152938201938101610e4b565b92505050602093945060ff929192191683830152151560051b01019038808080610e28565b9060408252600060035492610eb184610391565b806040830152606094600190600181169081600014610f365750600114610ee8575b505061038e9293506020818303910152610dfb565b60036000908152959293506000805160206121b38339815191525b828710610f215750505050606061038e929382010190839238610ed3565b80548786018501526020909601958101610f03565b91505061038e949550606092935060ff191682840152151560051b82010190839238610ed3565b9081602091031261036e575190565b6040513d6000823e3d90fd5b92906020926001600160401b039263ffffffff610fb7604051978896879663230e93b160e11b885216600487015260a0602487015260a48601906103cb565b60016044860152921660648401526084830152038160007f00000000000000000000000000000000000000000000000000000000000000006001600160a01b03165af190811561106257600091611033575b50807f1131472297a800fee664d1d89cfa8f7676ff07189ecc53f80bbb5f4969099db8600080a290565b611055915060203d60201161105b575b61104d8183610307565b810190610f5d565b38611009565b503d611043565b610f6c565b634e487b7160e01b600052602160045260246000fd5b6003111561108757565b611067565b91906111006080926110d160ff6110a16114a6565b946110ca6040516110b1816102ec565b60068152651cdb1bdd125160d21b6020820152876114f6565b1684611888565b6110fa6040516110e0816102ec565b60078152663b32b939b4b7b760c91b6020820152846114f6565b82611888565b600260208401525151910152565b815115611122576001602082015260800152565b60405163e889636f60e01b8152600490fd5b8151156111415760a00152565b60405163fe936cb760e01b8152600490fd5b8151156111415760c00152565b6040519061116d826102ec565b600c82526b31b7b232a637b1b0ba34b7b760a11b6020830152565b60405190611195826102ec565b60088252676c616e677561676560c01b6020830152565b6001111561108757565b604051906111c3826102ec565b6006825265736f7572636560d01b6020830152565b604051906111e5826102ec565b60048252636172677360e01b6020830152565b805182101561120c5760209160051b010190565b634e487b7160e01b600052603260045260246000fd5b6040519061122f826102ec565b600f82526e39b2b1b932ba39a637b1b0ba34b7b760891b6020830152565b6040519061125a826102ec565b60078252667365637265747360c81b6020830152565b6040519061127d826102ec565b600982526862797465734172677360b81b6020830152565b61129d6114a6565b906112af6112a9611160565b836114f6565b6112cc81516112bd8161107d565b6112c68161107d565b836115b8565b6112d76112a9611188565b6112f160408201516112e8816111ac565b6112c6816111ac565b6112fc6112a96111b6565b61130a6060820151836114f6565b60a0810180515161140a575b50608081019081515161138a575b60c0915001805151611337575b50515190565b916113436112a9611270565b61134c8261168a565b60005b83518051821015611377579061137161136a826001946111f8565b51856117b2565b0161134f565b5050915061138481611725565b38611331565b6020810180516113998161107d565b6113a28161107d565b156113f85760c0926113db6113f3926113c26113bc611222565b886114f6565b516113cc8161107d565b6113d58161107d565b866115b8565b6113ec6113e661124d565b866114f6565b51846117b2565b611324565b60405163a80d31f760e01b8152600490fd5b9261141c6114166111d8565b846114f6565b6114258361168a565b60005b84518051821015611450579061144a611443826001946111f8565b51866114f6565b01611428565b5050925061145d82611725565b38611316565b81511561147a576000808252604082015260600152565b6040516322ce3edd60e01b8152600490fd5b60405190611499826102ec565b6000602083606081520152565b6040516114b2816102ec565b6114ba61148c565b80825260208201600081526114cd61148c565b50610100602083015260405180925260008252610120820191821061036e576000916040525290565b815161153a9291906001600160401b038116906017821161153d576115259150606060ff845192161790611ebf565b505b519061153161148c565b508051916120ef565b50565b5060ff81116115625761155c906115548351611b32565b50825161207b565b50611527565b61ffff81116115815761155c906115798351611acd565b50825161200d565b63ffffffff81116115a25761155c9061159a8351611a68565b508251611f9d565b61155c906115b083516119f8565b508251611f2a565b908151916115c461148c565b50825151600181019081811161165957602085015181101561161d575b60c260206105c59651928301015380518211611615575b505060405191602083015260208252611610826102ec565b6117b2565b5238806115f8565b8160011b94828604600214831517156116595760208161164f6105c59861164860c295519184611836565b508261191d565b50965050506115e1565b634e487b7160e01b600052601160045260246000fd5b906020820180921161165957565b9190820180921161165957565b80519061169561148c565b5081515160018101908181116116595760208401518110156116e3575b609f60208095519283010153805182116116db575b505001805190600182018092116116595752565b5238806116c7565b8160011b93828504600214831517156116595760208161170c8297611648609f95519184611836565b50955050506116b2565b601f1981019190821161165957565b80519061173061148c565b50815151600181019081811161165957602084015181101561177f575b60ff6020809551928301015380518211611777575b50500180516000198101919082116116595752565b523880611762565b8160011b9382850460021483151715611659576020816117a8829761164860ff95519184611836565b509550505061174d565b815161153a9291906001600160401b03811690601782116117e1576115259150604060ff845192161790611ebf565b5060ff81116117f85761155c906115548351611cc6565b61ffff811161180f5761155c906115798351611c61565b63ffffffff81116118285761155c9061159a8351611bfc565b61155c906115b08351611b97565b9061183f61148c565b50601f81168061186e575b508060208301526040519081835260008252810160200190811061036e5760405290565b60200360208111611659578101809111611659573861184a565b906001600160401b038116601781116118ab575060ff61153a9251911690611ebf565b905060ff81116118ca57816118c361153a9351611e5a565b505161207b565b61ffff81116118e857816118e161153a9351611df5565b505161200d565b63ffffffff8111611908578161190161153a9351611d90565b5051611f9d565b8161191661153a9351611d2b565b5051611f2a565b9061192661148c565b5080519061193261148c565b5061194081518311156120e8565b8251519161194e818461167d565b602092602086015182116119cb575b6020918651838151978201019682116119c3575b505001915b8082101561199b5750600019906020036101000a019081199051169082511617905290565b9091926119b76119b16119bd928651815261166f565b9461166f565b92611716565b90611976565b523880611971565b6119dd6119d7836119e2565b8761219b565b61195d565b908160011b918083046002149015171561165957565b611a0061148c565b508051516001810190818111611659576020830151811015611a39575b607b60208451928301015380518211611a3557505090565b5290565b8160011b8281046002148315171561165957611a6290611a5b85519186611836565b508461191d565b50611a1d565b611a7061148c565b508051516001810190818111611659576020830151811015611aa5575b607a60208451928301015380518211611a3557505090565b8160011b8281046002148315171561165957611ac790611a5b85519186611836565b50611a8d565b611ad561148c565b508051516001810190818111611659576020830151811015611b0a575b607960208451928301015380518211611a3557505090565b8160011b8281046002148315171561165957611b2c90611a5b85519186611836565b50611af2565b611b3a61148c565b508051516001810190818111611659576020830151811015611b6f575b607860208451928301015380518211611a3557505090565b8160011b8281046002148315171561165957611b9190611a5b85519186611836565b50611b57565b611b9f61148c565b508051516001810190818111611659576020830151811015611bd4575b605b60208451928301015380518211611a3557505090565b8160011b8281046002148315171561165957611bf690611a5b85519186611836565b50611bbc565b611c0461148c565b508051516001810190818111611659576020830151811015611c39575b605a60208451928301015380518211611a3557505090565b8160011b8281046002148315171561165957611c5b90611a5b85519186611836565b50611c21565b611c6961148c565b508051516001810190818111611659576020830151811015611c9e575b605960208451928301015380518211611a3557505090565b8160011b8281046002148315171561165957611cc090611a5b85519186611836565b50611c86565b611cce61148c565b508051516001810190818111611659576020830151811015611d03575b605860208451928301015380518211611a3557505090565b8160011b8281046002148315171561165957611d2590611a5b85519186611836565b50611ceb565b611d3361148c565b508051516001810190818111611659576020830151811015611d68575b601b60208451928301015380518211611a3557505090565b8160011b8281046002148315171561165957611d8a90611a5b85519186611836565b50611d50565b611d9861148c565b508051516001810190818111611659576020830151811015611dcd575b601a60208451928301015380518211611a3557505090565b8160011b8281046002148315171561165957611def90611a5b85519186611836565b50611db5565b611dfd61148c565b508051516001810190818111611659576020830151811015611e32575b601960208451928301015380518211611a3557505090565b8160011b8281046002148315171561165957611e5490611a5b85519186611836565b50611e1a565b611e6261148c565b508051516001810190818111611659576020830151811015611e97575b601860208451928301015380518211611a3557505090565b8160011b8281046002148315171561165957611eb990611a5b85519186611836565b50611e7f565b90611ec861148c565b508151516001810191828211611659576020840151821015611efb575b60208451928301015380518211611a3557505090565b8260011b8381046002148415171561165957611f2490611f1d86519187611836565b508561191d565b50611ee5565b90611f3361148c565b508151518060080191826008116116595760208401518311611f75575b6008845192830101906001600160401b031982511617905280518211611a3557505090565b8260011b8381046002148415171561165957611f9790611f1d86519187611836565b50611f50565b90611fa661148c565b508151518060040191826004116116595760208401518311611fe5575b60048451928301019063ffffffff1982511617905280518211611a3557505090565b8260011b838104600214841517156116595761200790611f1d86519187611836565b50611fc3565b9061201661148c565b508151518060020191826002116116595760208401518311612053575b60028451928301019061ffff1982511617905280518211611a3557505090565b8260011b838104600214841517156116595761207590611f1d86519187611836565b50612033565b9061208461148c565b5081515180600101918260011161165957602084015183116120c0575b60018451928301019060ff1982511617905280518211611a3557505090565b8260011b83810460021484151715611659576120e290611f1d86519187611836565b506120a1565b1561036e57565b91906120f961148c565b5061210781518311156120e8565b825151916020612117828561167d565b928193828701518111612184575b86518381519782010196821161217c575b505001915b808210156121605750600019906020036101000a019081199051169082511617905290565b9091926119b76119b1612176928651815261166f565b9061213b565b523880612136565b612196612190826119e2565b8861219b565b612125565b9061153a916121ac81519282611836565b5061191d56fec2575a0e9e593c00f959f8c92f12db2869c3395a3b0502d05e2516446f71f85b8a35acfbc15ff81a39ae7d344fd709f28e8600b4aa8c65c6b64bfe7fe36bd19ba26469706673582212202ca79bc48dbc50e974d0b8c8c730c03e2c1dd84edee7f2d51f26160bae2d0a9a64736f6c63430008180033",
  "linkReferences": {},
  "deployedLinkReferences": {}
}