{
  "_format": "hh-sol-artifact-1",
  "contractName": "AItool",
  "sourceName": "contracts/AItool.sol",
  "abi": [
    {
      "inputs": [],
      "stateMutability": "nonpayable",
      "type": "constructor"
    },
    {
      "anonymous": false,
      "inputs": [
        {
          "indexed": false,
          "internalType": "string",
          "name": "name",
          "type": "string"
        },
        {
          "indexed": false,
          "internalType": "address",
          "name": "user",
          "type": "address"
        },
        {
          "indexed": false,
          "internalType": "uint256",
          "name": "rentalDuration",
          "type": "uint256"
        }
      ],
      "name": "AIToolRented",
      "type": "event"
    },
    {
      "anonymous": false,
      "inputs": [
        {
          "indexed": false,
          "internalType": "string",
          "name": "name",
          "type": "string"
        },
        {
          "indexed": false,
          "internalType": "address",
          "name": "user",
          "type": "address"
        },
        {
          "indexed": false,
          "internalType": "uint256",
          "name": "amount",
          "type": "uint256"
        }
      ],
      "name": "RentalFeeDeducted",
      "type": "event"
    },
    {
      "inputs": [
        {
          "internalType": "uint256",
          "name": "",
          "type": "uint256"
        }
      ],
      "name": "aiTools",
      "outputs": [
        {
          "internalType": "string",
          "name": "name",
          "type": "string"
        },
        {
          "internalType": "string",
          "name": "symbol",
          "type": "string"
        },
        {
          "internalType": "string",
          "name": "api",
          "type": "string"
        },
        {
          "internalType": "address",
          "name": "developer",
          "type": "address"
        },
        {
          "internalType": "uint256",
          "name": "hourlyRent",
          "type": "uint256"
        },
        {
          "internalType": "uint256",
          "name": "dailyRent",
          "type": "uint256"
        },
        {
          "internalType": "uint256",
          "name": "weeklyRent",
          "type": "uint256"
        },
        {
          "internalType": "uint256",
          "name": "monthlyRent",
          "type": "uint256"
        }
      ],
      "stateMutability": "view",
      "type": "function"
    },
    {
      "inputs": [],
      "name": "nextID",
      "outputs": [
        {
          "internalType": "uint256",
          "name": "",
          "type": "uint256"
        }
      ],
      "stateMutability": "view",
      "type": "function"
    },
    {
      "inputs": [],
      "name": "owner",
      "outputs": [
        {
          "internalType": "address",
          "name": "",
          "type": "address"
        }
      ],
      "stateMutability": "view",
      "type": "function"
    },
    {
      "inputs": [
        {
          "internalType": "string",
          "name": "_name",
          "type": "string"
        },
        {
          "internalType": "string",
          "name": "_symbol",
          "type": "string"
        },
        {
          "internalType": "string",
          "name": "_api",
          "type": "string"
        },
        {
          "internalType": "uint256",
          "name": "_hourlyRent",
          "type": "uint256"
        },
        {
          "internalType": "uint256",
          "name": "_dailyRent",
          "type": "uint256"
        },
        {
          "internalType": "uint256",
          "name": "_weeklyRent",
          "type": "uint256"
        },
        {
          "internalType": "uint256",
          "name": "_monthlyRent",
          "type": "uint256"
        }
      ],
      "name": "registerAITool",
      "outputs": [],
      "stateMutability": "nonpayable",
      "type": "function"
    },
    {
      "inputs": [
        {
          "internalType": "uint256",
          "name": "_id",
          "type": "uint256"
        },
        {
          "internalType": "uint256",
          "name": "_duration",
          "type": "uint256"
        }
      ],
      "name": "rentAITool",
      "outputs": [],
      "stateMutability": "payable",
      "type": "function"
    }
  ],
  "bytecode": "0x6080806040523461002c5760018055600280546001600160a01b03191633179055610da890816100328239f35b600080fdfe608060408181526004918236101561001657600080fd5b600092833560e01c9182631e96917d1461097657508163392ab809146104695781634e83ac0214610147578163744ac99d146100875750638da5cb5b1461005c57600080fd5b3461008357816003193601126100835760025490516001600160a01b039091168152602090f35b5080fd5b905034610143576020366003190112610143578161010a93823581528060205220916100b283610a60565b926100bf60018201610a60565b916100cc60028301610a60565b9061012560018060a01b036003850154169584015491600585015493610118600760068801549701549783519b8c9b8c6101008091528d0190610b28565b908b820360208d0152610b28565b91898303908a0152610b28565b946060870152608086015260a085015260c084015260e08301520390f35b8280fd5b838380600319360112610083578235906024359060019261016b6001548210610b4d565b808552602085815282862060030154909190610191906001600160a01b03161515610b4d565b808652858252600883872001338752825260ff838720541661042857610e10840361038e57808652858252868387200154965b87341061035457508086528582526008838720013387528252858080808681209a60ff199b60018d82541617905585825281875260098883200133835287524288832055858252818752600a888320013383528752888883205581811561034b575b3090f11561034157855284815281852082519460608652869782549261024b84610a26565b938460608a01526080926001821691826000146102f95750506001146102a1575b3385890152858801879052887f26a16ddc28892c09fef75374d820cd8e706de4e1594902960d9ece6a99371ac1898c038aa180f35b885283882093985087935b8385106102e65750505050830160800194817f26a16ddc28892c09fef75374d820cd8e706de4e1594902960d9ece6a99371ac1858961026c565b80548886018301529389019382016102ac565b1660808a81019190915294151560051b890190940199508593507f26a16ddc28892c09fef75374d820cd8e706de4e1594902960d9ece6a99371ac192508791508a905061026c565b82513d87823e3d90fd5b506108fc610226565b835162461bcd60e51b81529081018390526014602482015273125b9cdd59999a58da595b9d081c185e5b595b9d60621b6044820152606490fd5b6201518084036103ab5780865285825260058387200154966101c4565b62093a8084036103c85780865285825260068387200154966101c4565b62278d0084036103e55780865285825260078387200154966101c4565b825162461bcd60e51b8152808801839052601760248201527f496e76616c69642072656e74616c206475726174696f6e0000000000000000006044820152606490fd5b606487838086519262461bcd60e51b845283015260248201527f5573657220616c72656164792072656e746564207468697320414920746f6f6c6044820152fd5b905082346109735760e03660031901126109735767ffffffffffffffff9282358481116101435761049d90369085016109ca565b9060243585811161096f576104b590369086016109ca565b60443586811161096b576104cc90369087016109ca565b956104d684610c16565b610928576104e382610c9d565b6108db576104f087610d0a565b6108985760019384549182875260209387855285882083518381116107cd578061051a8354610a26565b95601f9687811161084a575b5088908783116001146107eb578c926107e0575b5050600019600383901b1c191690891b1790555b8388528785528686892001908051908382116107cd5781906105708454610a26565b86811161077f575b508790868311600114610720578b92610715575b5050600019600383901b1c191690881b1790555b828752868452600285882001918951918211610702576105c08354610a26565b8181116106c3575b508798998896979850859183116001146106625786919083610657575b5050600019600383901b1c191690871b1790555b82525282206003810180546001600160a01b0319163317905560643584820155608435600582015560a435600682015560c43560079091015580546000198114610644578101905580f35b634e487b7160e01b835260118452602483fd5b015190508a806105e5565b8387528587208993929091601f198416895b8181106106a957508411610690575b505050811b0190556105f9565b015160001960f88460031b161c191690558a8080610683565b8383015185558d9a508c9690940193928901928901610674565b8389528589208280850160051c8201928886106106f9575b0160051c01905b8181106106ef57506105c8565b89815588016106e2565b925081926106db565b634e487b7160e01b885260418952602488fd5b015190508c8061058c565b848c52888c208b94509190601f1984168d5b8b8282106107695750508411610750575b505050811b0190556105a0565b015160001960f88460031b161c191690558c8080610743565b8385015186558e97909501949384019301610732565b909150838b52878b208680850160051c8201928a86106107c4575b918c91869594930160051c01915b8281106107b6575050610578565b8d81558594508c91016107a8565b9250819261079a565b634e487b7160e01b8a5260418b5260248afd5b015190508d8061053a565b848d52898d208c94509190601f1984168e5b8c828210610834575050841161081b575b505050811b01905561054e565b015160001960f88460031b161c191690558d808061080e565b8385015186558f979095019493840193016107fd565b909150838c52888c208780850160051c8201928b861061088f575b918d91869594930160051c01915b828110610881575050610526565b8e81558594508d9101610873565b92508192610865565b825162461bcd60e51b8152602081880152601e60248201527f414920746f6f6c2041504920616c7265616479207265676973746572656400006044820152606490fd5b825162461bcd60e51b8152602081880152602160248201527f414920746f6f6c2073796d626f6c20616c7265616479207265676973746572656044820152601960fa1b6064820152608490fd5b825162461bcd60e51b8152602081880152601f60248201527f414920746f6f6c206e616d6520616c72656164792072656769737465726564006044820152606490fd5b8480fd5b8380fd5b80fd5b8490346100835781600319360112610083576020906001548152f35b90601f8019910116810190811067ffffffffffffffff8211176109b457604052565b634e487b7160e01b600052604160045260246000fd5b81601f82011215610a215780359067ffffffffffffffff82116109b457604051926109ff601f8401601f191660200185610992565b82845260208383010111610a2157816000926020809301838601378301015290565b600080fd5b90600182811c92168015610a56575b6020831014610a4057565b634e487b7160e01b600052602260045260246000fd5b91607f1691610a35565b90604051918260008254610a7381610a26565b90818452602094600191600181169081600014610ae35750600114610aa4575b505050610aa292500383610992565b565b600090815285812095935091905b818310610acb575050610aa29350820101388080610a93565b85548884018501529485019487945091830191610ab2565b92505050610aa294925060ff191682840152151560051b820101388080610a93565b60005b838110610b185750506000910152565b8181015183820152602001610b08565b90602091610b4181518092818552858086019101610b05565b601f01601f1916010190565b15610b5457565b60405162461bcd60e51b81526020600482015260166024820152751052481d1bdbdb081b9bdd081c9959da5cdd195c995960521b6044820152606490fd5b600092918154610ba181610a26565b92600191808316908115610bfb5750600114610bbe575b50505050565b9091929394506000526020906020600020906000915b858310610bea5750505050019038808080610bb8565b805485840152918301918101610bd4565b60ff1916845250505081151590910201915038808080610bb8565b600180549091825b828110610c2e5750505050600090565b6000818152602081815260408092208251610c5e81610c508582018095610b92565b03601f198101835282610992565b5190209151610c8782820192828751610c7a8187858c01610b05565b8101038084520182610992565b51902014610c96578301610c1e565b9250505090565b6001908154915b828110610cb357505050600090565b6000818152602081815260016040809320018251610cd881610c508582018095610b92565b5190209151610cf482820192828751610c7a8187858c01610b05565b51902014610d0457600101610ca4565b91505090565b600180549091825b828110610d225750505050600090565b6000818152602081815260026040809320018251610d4781610c508582018095610b92565b5190209151610d6382820192828751610c7a8187858c01610b05565b51902014610c96578301610d1256fea2646970667358221220f32feb29369f2597587c64ed755d88a2eab8b7d841f815d1a8d9d9a112bc8e8d64736f6c63430008180033",
  "linkReferences": {},
  "deployedLinkReferences": {}
}